{
  "address": "0x44769bE6853918e939281b2f669f9a58608Cb55B",
  "abi": [
    {
      "anonymous": false,
      "inputs": [
        {
          "indexed": true,
          "internalType": "address",
          "name": "updater",
          "type": "address"
        },
        {
          "indexed": false,
          "internalType": "uint64",
          "name": "newStartTimestamp",
          "type": "uint64"
        },
        {
          "indexed": false,
          "internalType": "uint64",
          "name": "newEndTimestamp",
          "type": "uint64"
        }
      ],
      "name": "DatesUpdated",
      "type": "event"
    },
    {
      "anonymous": false,
      "inputs": [
        {
          "indexed": true,
          "internalType": "address",
          "name": "previousOwner",
          "type": "address"
        },
        {
          "indexed": true,
          "internalType": "address",
          "name": "newOwner",
          "type": "address"
        }
      ],
      "name": "OwnershipTransferred",
      "type": "event"
    },
    {
      "anonymous": false,
      "inputs": [
        {
          "indexed": true,
          "internalType": "address",
          "name": "oracle",
          "type": "address"
        },
        {
          "indexed": true,
          "internalType": "uint256",
          "name": "result",
          "type": "uint256"
        },
        {
          "indexed": false,
          "internalType": "uint256",
          "name": "closeTimestamp",
          "type": "uint256"
        }
      ],
      "name": "ResultReported",
      "type": "event"
    },
    {
      "anonymous": false,
      "inputs": [
        {
          "indexed": true,
          "internalType": "address",
          "name": "account",
          "type": "address"
        },
        {
          "indexed": true,
          "internalType": "uint256",
          "name": "outcome",
          "type": "uint256"
        },
        {
          "indexed": false,
          "internalType": "uint256",
          "name": "amount",
          "type": "uint256"
        },
        {
          "indexed": false,
          "internalType": "uint256",
          "name": "tokenIn",
          "type": "uint256"
        }
      ],
      "name": "SharesBought",
      "type": "event"
    },
    {
      "anonymous": false,
      "inputs": [
        {
          "indexed": true,
          "internalType": "address",
          "name": "account",
          "type": "address"
        },
        {
          "indexed": true,
          "internalType": "uint256",
          "name": "outcome",
          "type": "uint256"
        },
        {
          "indexed": false,
          "internalType": "uint256",
          "name": "amount",
          "type": "uint256"
        },
        {
          "indexed": false,
          "internalType": "uint256",
          "name": "tokenOut",
          "type": "uint256"
        }
      ],
      "name": "SharesRedeemed",
      "type": "event"
    },
    {
      "anonymous": false,
      "inputs": [
        {
          "indexed": true,
          "internalType": "address",
          "name": "account",
          "type": "address"
        },
        {
          "indexed": true,
          "internalType": "uint256",
          "name": "outcome",
          "type": "uint256"
        },
        {
          "indexed": false,
          "internalType": "uint256",
          "name": "amount",
          "type": "uint256"
        },
        {
          "indexed": false,
          "internalType": "uint256",
          "name": "tokenOut",
          "type": "uint256"
        }
      ],
      "name": "SharesSold",
      "type": "event"
    },
    {
      "inputs": [],
      "name": "ONE_SHARE",
      "outputs": [
        {
          "internalType": "int128",
          "name": "",
          "type": "int128"
        }
      ],
      "stateMutability": "view",
      "type": "function"
    },
    {
      "inputs": [
        {
          "internalType": "uint256",
          "name": "_outcome",
          "type": "uint256"
        },
        {
          "internalType": "int128",
          "name": "_amount",
          "type": "int128"
        },
        {
          "internalType": "uint256",
          "name": "_maxCost",
          "type": "uint256"
        }
      ],
      "name": "buy",
      "outputs": [
        {
          "internalType": "uint256",
          "name": "tokenCost",
          "type": "uint256"
        }
      ],
      "stateMutability": "nonpayable",
      "type": "function"
    },
    {
      "inputs": [
        {
          "internalType": "address",
          "name": "_buyer",
          "type": "address"
        },
        {
          "internalType": "address",
          "name": "_payer",
          "type": "address"
        },
        {
          "internalType": "uint256",
          "name": "_outcome",
          "type": "uint256"
        },
        {
          "internalType": "int128",
          "name": "_amount",
          "type": "int128"
        }
      ],
      "name": "buyFor",
      "outputs": [
        {
          "internalType": "uint256",
          "name": "tokenCost",
          "type": "uint256"
        }
      ],
      "stateMutability": "nonpayable",
      "type": "function"
    },
    {
      "inputs": [
        {
          "internalType": "uint256",
          "name": "_outcome",
          "type": "uint256"
        },
        {
          "internalType": "int128",
          "name": "_amount",
          "type": "int128"
        }
      ],
      "name": "buyPrice",
      "outputs": [
        {
          "internalType": "int128",
          "name": "tokenCost",
          "type": "int128"
        }
      ],
      "stateMutability": "view",
      "type": "function"
    },
    {
      "inputs": [],
      "name": "closeTimestamp",
      "outputs": [
        {
          "internalType": "uint64",
          "name": "",
          "type": "uint64"
        }
      ],
      "stateMutability": "view",
      "type": "function"
    },
    {
      "inputs": [],
      "name": "datesUpdateEnabled",
      "outputs": [
        {
          "internalType": "bool",
          "name": "",
          "type": "bool"
        }
      ],
      "stateMutability": "view",
      "type": "function"
    },
    {
      "inputs": [
        {
          "internalType": "uint256",
          "name": "_id",
          "type": "uint256"
        }
      ],
      "name": "enableDatesUpdate",
      "outputs": [],
      "stateMutability": "nonpayable",
      "type": "function"
    },
    {
      "inputs": [],
      "name": "endTimestamp",
      "outputs": [
        {
          "internalType": "uint64",
          "name": "",
          "type": "uint64"
        }
      ],
      "stateMutability": "view",
      "type": "function"
    },
    {
      "inputs": [
        {
          "internalType": "address",
          "name": "_account",
          "type": "address"
        }
      ],
      "name": "getAccountOutcomeBalances",
      "outputs": [
        {
          "internalType": "uint256[]",
          "name": "balances",
          "type": "uint256[]"
        }
      ],
      "stateMutability": "view",
      "type": "function"
    },
    {
      "inputs": [
        {
          "internalType": "address",
          "name": "_account",
          "type": "address"
        }
      ],
      "name": "getAccountStats",
      "outputs": [
        {
          "internalType": "uint256",
          "name": "buys",
          "type": "uint256"
        },
        {
          "internalType": "uint256",
          "name": "sells",
          "type": "uint256"
        },
        {
          "internalType": "uint256",
          "name": "deposited",
          "type": "uint256"
        },
        {
          "internalType": "uint256",
          "name": "withdrawn",
          "type": "uint256"
        },
        {
          "internalType": "uint256",
          "name": "redeemed",
          "type": "uint256"
        }
      ],
      "stateMutability": "view",
      "type": "function"
    },
    {
      "inputs": [],
      "name": "getMarketInfo",
      "outputs": [
        {
          "internalType": "int128",
          "name": "",
          "type": "int128"
        },
        {
          "internalType": "int128[]",
          "name": "",
          "type": "int128[]"
        },
        {
          "internalType": "int128",
          "name": "",
          "type": "int128"
        },
        {
          "internalType": "int128",
          "name": "",
          "type": "int128"
        },
        {
          "internalType": "uint256",
          "name": "",
          "type": "uint256"
        },
        {
          "internalType": "uint256",
          "name": "",
          "type": "uint256"
        }
      ],
      "stateMutability": "view",
      "type": "function"
    },
    {
      "inputs": [],
      "name": "getMarketSetupInfo",
      "outputs": [
        {
          "internalType": "int128",
          "name": "",
          "type": "int128"
        },
        {
          "internalType": "int128",
          "name": "",
          "type": "int128"
        },
        {
          "internalType": "uint256",
          "name": "",
          "type": "uint256"
        },
        {
          "internalType": "int128",
          "name": "",
          "type": "int128"
        },
        {
          "internalType": "uint256",
          "name": "",
          "type": "uint256"
        }
      ],
      "stateMutability": "view",
      "type": "function"
    },
    {
      "inputs": [],
      "name": "getPrices",
      "outputs": [
        {
          "internalType": "uint256[]",
          "name": "buyPrices",
          "type": "uint256[]"
        },
        {
          "internalType": "uint256[]",
          "name": "sellPrices",
          "type": "uint256[]"
        }
      ],
      "stateMutability": "view",
      "type": "function"
    },
    {
      "inputs": [],
      "name": "getWithdrawableCollateral",
      "outputs": [
        {
          "internalType": "uint256",
          "name": "",
          "type": "uint256"
        }
      ],
      "stateMutability": "view",
      "type": "function"
    },
    {
      "inputs": [],
      "name": "id",
      "outputs": [
        {
          "internalType": "uint32",
          "name": "",
          "type": "uint32"
        }
      ],
      "stateMutability": "view",
      "type": "function"
    },
    {
      "inputs": [
        {
          "internalType": "address",
          "name": "_token",
          "type": "address"
        }
      ],
      "name": "initialize",
      "outputs": [],
      "stateMutability": "nonpayable",
      "type": "function"
    },
    {
      "inputs": [],
      "name": "oracle",
      "outputs": [
        {
          "internalType": "address",
          "name": "",
          "type": "address"
        }
      ],
      "stateMutability": "view",
      "type": "function"
    },
    {
      "inputs": [],
      "name": "owner",
      "outputs": [
        {
          "internalType": "address",
          "name": "",
          "type": "address"
        }
      ],
      "stateMutability": "view",
      "type": "function"
    },
    {
      "inputs": [
        {
          "internalType": "address[]",
          "name": "_accounts",
          "type": "address[]"
        }
      ],
      "name": "redeemBatch",
      "outputs": [
        {
          "internalType": "uint256",
          "name": "redeems",
          "type": "uint256"
        }
      ],
      "stateMutability": "nonpayable",
      "type": "function"
    },
    {
      "inputs": [
        {
          "internalType": "address",
          "name": "_account",
          "type": "address"
        }
      ],
      "name": "redeemFor",
      "outputs": [
        {
          "internalType": "uint256",
          "name": "redeemedShares",
          "type": "uint256"
        }
      ],
      "stateMutability": "nonpayable",
      "type": "function"
    },
    {
      "inputs": [],
      "name": "redeemShares",
      "outputs": [
        {
          "internalType": "uint256",
          "name": "redeemedShares",
          "type": "uint256"
        }
      ],
      "stateMutability": "nonpayable",
      "type": "function"
    },
    {
      "inputs": [
        {
          "internalType": "uint256",
          "name": "_id",
          "type": "uint256"
        },
        {
          "internalType": "uint256",
          "name": "_outcome",
          "type": "uint256"
        }
      ],
      "name": "reportResult",
      "outputs": [],
      "stateMutability": "nonpayable",
      "type": "function"
    },
    {
      "inputs": [],
      "name": "result",
      "outputs": [
        {
          "internalType": "uint16",
          "name": "",
          "type": "uint16"
        }
      ],
      "stateMutability": "view",
      "type": "function"
    },
    {
      "inputs": [
        {
          "internalType": "uint256",
          "name": "_outcome",
          "type": "uint256"
        },
        {
          "internalType": "int128",
          "name": "_amount",
          "type": "int128"
        },
        {
          "internalType": "uint256",
          "name": "_minReturn",
          "type": "uint256"
        }
      ],
      "name": "sell",
      "outputs": [
        {
          "internalType": "uint256",
          "name": "tokenReturn",
          "type": "uint256"
        }
      ],
      "stateMutability": "nonpayable",
      "type": "function"
    },
    {
      "inputs": [
        {
          "internalType": "address",
          "name": "_seller",
          "type": "address"
        },
        {
          "internalType": "address",
          "name": "_receiver",
          "type": "address"
        },
        {
          "internalType": "uint256",
          "name": "_outcome",
          "type": "uint256"
        },
        {
          "internalType": "int128",
          "name": "_amount",
          "type": "int128"
        }
      ],
      "name": "sellFor",
      "outputs": [
        {
          "internalType": "uint256",
          "name": "tokenReturn",
          "type": "uint256"
        }
      ],
      "stateMutability": "nonpayable",
      "type": "function"
    },
    {
      "inputs": [
        {
          "internalType": "uint256",
          "name": "_outcome",
          "type": "uint256"
        },
        {
          "internalType": "int128",
          "name": "_amount",
          "type": "int128"
        }
      ],
      "name": "sellPrice",
      "outputs": [
        {
          "internalType": "int128",
          "name": "tokenReturn",
          "type": "int128"
        }
      ],
      "stateMutability": "view",
      "type": "function"
    },
    {
      "inputs": [
        {
          "internalType": "uint256",
          "name": "_id",
          "type": "uint256"
        },
        {
          "internalType": "address",
          "name": "_oracle",
          "type": "address"
        },
        {
          "internalType": "uint256",
          "name": "_outcomes",
          "type": "uint256"
        },
        {
          "internalType": "uint256",
          "name": "_liquidity",
          "type": "uint256"
        },
        {
          "internalType": "uint256",
          "name": "_overround",
          "type": "uint256"
        }
      ],
      "name": "setup",
      "outputs": [],
      "stateMutability": "nonpayable",
      "type": "function"
    },
    {
      "inputs": [
        {
          "internalType": "uint256",
          "name": "_id",
          "type": "uint256"
        },
        {
          "internalType": "address",
          "name": "_oracle",
          "type": "address"
        },
        {
          "internalType": "uint256",
          "name": "_outcomes",
          "type": "uint256"
        },
        {
          "internalType": "uint256",
          "name": "_liquidity",
          "type": "uint256"
        },
        {
          "internalType": "uint256",
          "name": "_overround",
          "type": "uint256"
        },
        {
          "internalType": "uint256",
          "name": "_funding",
          "type": "uint256"
        }
      ],
      "name": "setupVL",
      "outputs": [],
      "stateMutability": "nonpayable",
      "type": "function"
    },
    {
      "inputs": [],
      "name": "startTimestamp",
      "outputs": [
        {
          "internalType": "uint64",
          "name": "",
          "type": "uint64"
        }
      ],
      "stateMutability": "view",
      "type": "function"
    },
    {
      "inputs": [],
      "name": "token",
      "outputs": [
        {
          "internalType": "address",
          "name": "",
          "type": "address"
        }
      ],
      "stateMutability": "view",
      "type": "function"
    },
    {
      "inputs": [],
      "name": "totalOutcomes",
      "outputs": [
        {
          "internalType": "uint16",
          "name": "",
          "type": "uint16"
        }
      ],
      "stateMutability": "view",
      "type": "function"
    },
    {
      "inputs": [
        {
          "internalType": "address",
          "name": "_newOwner",
          "type": "address"
        }
      ],
      "name": "transferOwnership",
      "outputs": [],
      "stateMutability": "nonpayable",
      "type": "function"
    },
    {
      "inputs": [
        {
          "internalType": "uint256",
          "name": "_newStartTimestamp",
          "type": "uint256"
        },
        {
          "internalType": "uint256",
          "name": "_newEndTimestamp",
          "type": "uint256"
        }
      ],
      "name": "updateDates",
      "outputs": [],
      "stateMutability": "nonpayable",
      "type": "function"
    },
    {
      "inputs": [
        {
          "internalType": "address",
          "name": "_newOracle",
          "type": "address"
        }
      ],
      "name": "updateOracle",
      "outputs": [],
      "stateMutability": "nonpayable",
      "type": "function"
    },
    {
      "inputs": [
        {
          "internalType": "uint256",
          "name": "_newSellFeeFactor",
          "type": "uint256"
        }
      ],
      "name": "updateSellFeeFactor",
      "outputs": [],
      "stateMutability": "nonpayable",
      "type": "function"
    },
    {
      "inputs": [
        {
          "internalType": "address",
          "name": "_token",
          "type": "address"
        }
      ],
      "name": "withdraw",
      "outputs": [
        {
          "internalType": "uint256",
          "name": "amount",
          "type": "uint256"
        }
      ],
      "stateMutability": "nonpayable",
      "type": "function"
    },
    {
      "inputs": [
        {
          "internalType": "address",
          "name": "_to",
          "type": "address"
        }
      ],
      "name": "withdrawAvailableCollateral",
      "outputs": [
        {
          "internalType": "uint256",
          "name": "amount",
          "type": "uint256"
        }
      ],
      "stateMutability": "nonpayable",
      "type": "function"
    }
  ],
  "transactionHash": "0xa98109055bd3fcda38f5e632499c919ab9f2e620171039594a92e77f6af7e39e",
  "args": [],
  "numDeployments": 1,
  "solcInputHash": "9041948f0553f1d504e469498b519ffc",
  "bytecode": "0x608060405234801561001057600080fd5b5061575380620000216000396000f3fe608060405234801561001057600080fd5b50600436106102775760003560e01c80638da5cb5b11610160578063bd9a548b116100d8578063e6b2c87c1161008c578063f2fde38b11610071578063f2fde38b1461090a578063f475180d14610930578063fc0c546a1461095c57610277565b8063e6b2c87c146108df578063e6fd48bc1461090257610277565b8063c5d40767116100bd578063c5d407671461085d578063d27b30861461089c578063d4b2529f146108b957610277565b8063bd9a548b14610796578063c4d66de81461083757610277565b8063af640d0f1161012f578063b778c0e211610114578063b778c0e2146106cf578063b7d122b5146106eb578063bc0e610a146106f357610277565b8063af640d0f146106a6578063b460481d146106c757610277565b80638da5cb5b1461064d578063a85adeab14610655578063a9bbf7f11461065d578063ad094f3d1461068357610277565b80634eabd8bc116101f357806363f08247116101c257806377142c08116101a757806377142c08146105f55780637dc0d1d0146105fd5780637ed087ab1461062157610277565b806363f082471461059757806365372147146105d657610277565b80634eabd8bc146104d057806351cff8d91461050d578063535f02ee146105335780635467a7511461055957610277565b806323341a051161024a57806328cdfaeb1161022f57806328cdfaeb146104255780633dcb8b81146104765780634be1865d146104b357610277565b806323341a051461035957806326949b7e146103e157610277565b8063052d7c001461027c57806305b4b371146102a15780630cadc94f146103175780631cb44dfc14610331575b600080fd5b610284610964565b6040805167ffffffffffffffff9092168252519081900360200190f35b6102c7600480360360208110156102b757600080fd5b50356001600160a01b0316610974565b60408051602080825283518183015283519192839290830191858101910280838360005b838110156103035781810151838201526020016102eb565b505050509050019250505060405180910390f35b61031f610a22565b60408051918252519081900360200190f35b6103576004803603602081101561034757600080fd5b50356001600160a01b0316610b61565b005b610361610c42565b6040518087600f0b81526020018060200186600f0b815260200185600f0b8152602001848152602001838152602001828103825287818151815260200191508051906020019060200280838360005b838110156103c85781810151838201526020016103b0565b5050505090500197505050505050505060405180910390f35b610357600480360360c08110156103f757600080fd5b508035906001600160a01b036020820135169060408101359060608101359060808101359060a00135610d7b565b61044b6004803603602081101561043b57600080fd5b50356001600160a01b0316610fc8565b6040805195865260208601949094528484019290925260608401526080830152519081900360a00190f35b61049c6004803603604081101561048c57600080fd5b5080359060200135600f0b611011565b60408051600f9290920b8252519081900360200190f35b610357600480360360208110156104c957600080fd5b5035611169565b6104d8611254565b60408051600f96870b815294860b602086015284810193909352930b6060830152608082019290925290519081900360a00190f35b61031f6004803603602081101561052357600080fd5b50356001600160a01b0316611289565b61049c6004803603604081101561054957600080fd5b5080359060200135600f0b611587565b610357600480360360a081101561056f57600080fd5b508035906001600160a01b03602082013516906040810135906060810135906080013561166d565b61031f600480360360808110156105ad57600080fd5b506001600160a01b03813581169160208101359091169060408101359060600135600f0b611849565b6105de6118ab565b6040805161ffff9092168252519081900360200190f35b6105de6118bc565b6106056118cd565b604080516001600160a01b039092168252519081900360200190f35b61031f6004803603606081101561063757600080fd5b508035906020810135600f0b90604001356118dc565b6106056119e3565b6102846119f2565b61031f6004803603602081101561067357600080fd5b50356001600160a01b0316611a09565b6103576004803603604081101561069957600080fd5b5080359060200135611a5f565b6106ae611ec4565b6040805163ffffffff9092168252519081900360200190f35b61031f611ee8565b6106d7611f8d565b604080519115158252519081900360200190f35b61049c611f9d565b61031f6004803603602081101561070957600080fd5b81019060208101813564010000000081111561072457600080fd5b82018360208201111561073657600080fd5b8035906020019184602083028401116401000000008311171561075857600080fd5b919080806020026020016040519081016040528093929190818152602001838360200280828437600092019190915250929550611faa945050505050565b61079e61222c565b604051808060200180602001838103835285818151815260200191508051906020019060200280838360005b838110156107e25781810151838201526020016107ca565b50505050905001838103825284818151815260200191508051906020019060200280838360005b83811015610821578181015183820152602001610809565b5050505090500194505050505060405180910390f35b6103576004803603602081101561084d57600080fd5b50356001600160a01b031661233c565b61031f6004803603608081101561087357600080fd5b506001600160a01b03813581169160208101359091169060408101359060600135600f0b6124d1565b610357600480360360208110156108b257600080fd5b503561252a565b61031f600480360360208110156108cf57600080fd5b50356001600160a01b031661268d565b610357600480360360408110156108f557600080fd5b50803590602001356127dd565b6102846129da565b6103576004803603602081101561092057600080fd5b50356001600160a01b03166129f6565b61031f6004803603606081101561094657600080fd5b508035906020810135600f0b9060400135612b10565b610605612bfd565b60035467ffffffffffffffff1681565b60055460609067ffffffffffffffff8111801561099057600080fd5b506040519080825280602002602001820160405280156109ba578160200160208202803683370190505b50905060015b600254600160c01b900461ffff168111610a1b576001600160a01b038316600090815260046020818152604080842085855290920190529020548251839083908110610a0857fe5b60209081029190910101526001016109c0565b505b919050565b600254600090600160d01b900461ffff16610a3f57506000610b5e565b600154604080517f70a0823100000000000000000000000000000000000000000000000000000000815230600482015290516000926001600160a01b0316916370a08231916024808301926020929190829003018186803b158015610aa357600080fd5b505afa158015610ab7573d6000803e3d6000fd5b505050506040513d6020811015610acd57600080fd5b505160025460058054929350600092610b2c92600160d01b900461ffff16908110610af457fe5b90600052602060002090600291828204019190066010029054906101000a9004600f0b600a60109054906101000a9004600f0b612c0c565b600a54909150600090610b4c90610b47908490600f0b612c0c565b612c61565b9050610b588382612c94565b93505050505b90565b6000546001600160a01b03163314610bad576040805162461bcd60e51b815260206004820152600a60248201526927b7363c9037bbb732b960b11b604482015290519081900360640190fd5b6001600160a01b038116610c08576040805162461bcd60e51b815260206004820152601260248201527f496e76616c6964206e6577206f7261636c650000000000000000000000000000604482015290519081900360640190fd5b600280547fffffffffffffffffffffffff0000000000000000000000000000000000000000166001600160a01b0392909216919091179055565b60006060600080600080600060058054905067ffffffffffffffff81118015610c6a57600080fd5b50604051908082528060200260200182016040528015610c94578160200160208202803683370190505b50600b54909150600160801b900460ff16610cc057600096509450859350839250829150819050610d73565b60015b600254600160c01b900461ffff168111610d305760058181548110610ce457fe5b90600052602060002090600291828204019190066010029054906101000a9004600f0b828281518110610d1357fe5b600f92830b90920b60209283029190910190910152600101610cc3565b50600954600a54600b54600160801b8304600f90810b9a5093985090830b9650910b935067ffffffffffffffff8082169350680100000000000000009091041690505b909192939495565b6000546001600160a01b03163314610dc7576040805162461bcd60e51b815260206004820152600a60248201526927b7363c9037bbb732b960b11b604482015290519081900360640190fd5b600b54600160801b900460ff1615610e26576040805162461bcd60e51b815260206004820152600d60248201527f416c726561647920736574757000000000000000000000000000000000000000604482015290519081900360640190fd5b6002841015610e7c576040805162461bcd60e51b815260206004820152601060248201527f496e76616c6964206f7574636f6d657300000000000000000000000000000000604482015290519081900360640190fd5b600654831015610ed3576040805162461bcd60e51b815260206004820152601160248201527f496e76616c6964206c6971756964697479000000000000000000000000000000604482015290519081900360640190fd5b60c8821015610f29576040805162461bcd60e51b815260206004820152601160248201527f496e76616c6964206f766572726f756e64000000000000000000000000000000604482015290519081900360640190fd5b6000610f41612710610f3b8686612cf1565b90612d4a565b905080821015610f98576040805162461bcd60e51b815260206004820152600f60248201527f496e76616c69642066756e64696e670000000000000000000000000000000000604482015290519081900360640190fd5b600154610fb0906001600160a01b0316333085612db1565b610fbd8787878787612e3f565b506007555050505050565b6001600160a01b0316600090815260046020526040902080546001820154600283015460039093015467ffffffffffffffff808416956801000000000000000090940416939192565b6000808311801561102f5750600254600160c01b900461ffff168311155b611080576040805162461bcd60e51b815260206004820152600f60248201527f496e76616c6964206f7574636f6d650000000000000000000000000000000000604482015290519081900360640190fd5b600082600f0b1380156110c857506005838154811061109b57fe5b90600052602060002090600291828204019190066010029054906101000a9004600f0b600f0b82600f0b13155b611119576040805162461bcd60e51b815260206004820152600e60248201527f496e76616c696420616d6f756e74000000000000000000000000000000000000604482015290519081900360640190fd5b60095460009061113590600f0b611130868661320c565b612c0c565b9050600061115282600860109054906101000a9004600f0b613333565b905061115e8282612c0c565b925050505b92915050565b6000546001600160a01b031633146111b5576040805162461bcd60e51b815260206004820152600a60248201526927b7363c9037bbb732b960b11b604482015290519081900360640190fd5b620186a081111561120d576040805162461bcd60e51b815260206004820152601260248201527f496e76616c6964206e657720666163746f720000000000000000000000000000604482015290519081900360640190fd5b611216816133a6565b600860106101000a8154816fffffffffffffffffffffffffffffffff0219169083600f0b6fffffffffffffffffffffffffffffffff16021790555050565b600a54600854600254600754600160801b93849004600f90810b9584820b95600160c01b90940461ffff169493909304900b91565b600b54600090600160801b900460ff166001146112ed576040805162461bcd60e51b815260206004820152600b60248201527f556e617661696c61626c65000000000000000000000000000000000000000000604482015290519081900360640190fd5b600b805460ff60801b19167002000000000000000000000000000000001790556000546001600160a01b03163314611359576040805162461bcd60e51b815260206004820152600a60248201526927b7363c9037bbb732b960b11b604482015290519081900360640190fd5b60035467ffffffffffffffff166113b7576040805162461bcd60e51b815260206004820152601160248201527f4d61726b6574206e6f7420636c6f736564000000000000000000000000000000604482015290519081900360640190fd5b6001546001600160a01b038381169116141561141a576040805162461bcd60e51b815260206004820152600d60248201527f496e76616c696420746f6b656e00000000000000000000000000000000000000604482015290519081900360640190fd5b6001600160a01b0382166114ce57506040514790600090339083908381818185875af1925050503d806000811461146d576040519150601f19603f3d011682016040523d82523d6000602084013e611472565b606091505b50509050806114c8576040805162461bcd60e51b815260206004820152601360248201527f455448207769746864726177206661696c656400000000000000000000000000604482015290519081900360640190fd5b5061156f565b604080517f70a0823100000000000000000000000000000000000000000000000000000000815230600482015290516001600160a01b038416916370a08231916024808301926020929190829003018186803b15801561152d57600080fd5b505afa158015611541573d6000803e3d6000fd5b505050506040513d602081101561155757600080fd5b5051905061156f6001600160a01b03831633836133c4565b600b805460ff60801b1916600160801b179055919050565b600080831180156115a55750600254600160c01b900461ffff168311155b6115f6576040805162461bcd60e51b815260206004820152600f60248201527f496e76616c6964206f7574636f6d650000000000000000000000000000000000604482015290519081900360640190fd5b600082600f0b1361164e576040805162461bcd60e51b815260206004820152600e60248201527f496e76616c696420616d6f756e74000000000000000000000000000000000000604482015290519081900360640190fd5b61166661165b8484613449565b600954600f0b612c0c565b9392505050565b6000546001600160a01b031633146116b9576040805162461bcd60e51b815260206004820152600a60248201526927b7363c9037bbb732b960b11b604482015290519081900360640190fd5b600b54600160801b900460ff1615611718576040805162461bcd60e51b815260206004820152600d60248201527f416c726561647920736574757000000000000000000000000000000000000000604482015290519081900360640190fd5b600283101561176e576040805162461bcd60e51b815260206004820152601060248201527f496e76616c6964206f7574636f6d657300000000000000000000000000000000604482015290519081900360640190fd5b6006548210156117c5576040805162461bcd60e51b815260206004820152601160248201527f496e76616c6964206c6971756964697479000000000000000000000000000000604482015290519081900360640190fd5b60c881101561181b576040805162461bcd60e51b815260206004820152601160248201527f496e76616c6964206f766572726f756e64000000000000000000000000000000604482015290519081900360640190fd5b600154611833906001600160a01b0316333085612db1565b6118408585858585612e3f565b50600755505050565b600080546001600160a01b03163314611896576040805162461bcd60e51b815260206004820152600a60248201526927b7363c9037bbb732b960b11b604482015290519081900360640190fd5b6118a283838787613564565b95945050505050565b600254600160d01b900461ffff1681565b600254600160c01b900461ffff1681565b6002546001600160a01b031681565b600b54600090600160801b900460ff16600114611940576040805162461bcd60e51b815260206004820152600b60248201527f556e617661696c61626c65000000000000000000000000000000000000000000604482015290519081900360640190fd5b600b805460ff60801b191670020000000000000000000000000000000017905561196c8484338061398e565b905081156119c957818110156119c9576040805162461bcd60e51b815260206004820152601360248201527f53656c6c2072657475726e20746f6f206c6f7700000000000000000000000000604482015290519081900360640190fd5b600b805460ff60801b1916600160801b1790559392505050565b6000546001600160a01b031681565b600354600160801b900467ffffffffffffffff1681565b600080546001600160a01b03163314611a56576040805162461bcd60e51b815260206004820152600a60248201526927b7363c9037bbb732b960b11b604482015290519081900360640190fd5b61116382613e86565b600b54600160801b900460ff16600114611ac0576040805162461bcd60e51b815260206004820152600b60248201527f556e617661696c61626c65000000000000000000000000000000000000000000604482015290519081900360640190fd5b600b805460ff60801b19167002000000000000000000000000000000001790556002546001600160a01b03163314611b3f576040805162461bcd60e51b815260206004820152600b60248201527f4f6e6c79206f7261636c65000000000000000000000000000000000000000000604482015290519081900360640190fd5b60025474010000000000000000000000000000000000000000900463ffffffff168214611bb3576040805162461bcd60e51b815260206004820152600e60248201527f496e76616c6964206d61726b6574000000000000000000000000000000000000604482015290519081900360640190fd5b600081118015611bd05750600254600160c01b900461ffff168111155b611c21576040805162461bcd60e51b815260206004820152600f60248201527f496e76616c6964206f7574636f6d650000000000000000000000000000000000604482015290519081900360640190fd5b600354600160801b900467ffffffffffffffff164211611c88576040805162461bcd60e51b815260206004820152601060248201527f4d61726b6574206e6f7420656e64656400000000000000000000000000000000604482015290519081900360640190fd5b60035467ffffffffffffffff1615611ce7576040805162461bcd60e51b815260206004820152601560248201527f4d61726b657420616c726561647920636c6f7365640000000000000000000000604482015290519081900360640190fd5b600154604080517f70a0823100000000000000000000000000000000000000000000000000000000815230600482015290516000926001600160a01b0316916370a08231916024808301926020929190829003018186803b158015611d4b57600080fd5b505afa158015611d5f573d6000803e3d6000fd5b505050506040513d6020811015611d7557600080fd5b505160058054919250600091611d90919085908110610af457fe5b90506000611d9d82612c61565b905080831015611df4576040805162461bcd60e51b815260206004820152601360248201527f4d61726b6574206e6f7420636c6f7361626c6500000000000000000000000000604482015290519081900360640190fd5b600280547fffffffff0000ffffffffffffffffffffffffffffffffffffffffffffffffffff16600160d01b61ffff87811682029290921792839055600380547fffffffffffffffffffffffffffffffffffffffffffffffff0000000000000000164267ffffffffffffffff90811691909117918290556040805192909116825251919093049091169133917fa169b168cc07c4e0119c9d162315689a69cb546aff553be5bb441d452af29536916020908290030190a35050600b805460ff60801b1916600160801b179055505050565b60025474010000000000000000000000000000000000000000900463ffffffff1681565b600b54600090600160801b900460ff16600114611f4c576040805162461bcd60e51b815260206004820152600b60248201527f556e617661696c61626c65000000000000000000000000000000000000000000604482015290519081900360640190fd5b600b805460ff60801b1916700200000000000000000000000000000000179055611f7533613e86565b9050600b805460ff60801b1916600160801b17905590565b600354600160c01b900460ff1681565b6801000000000000000081565b600b54600090600160801b900460ff1660011461200e576040805162461bcd60e51b815260206004820152600b60248201527f556e617661696c61626c65000000000000000000000000000000000000000000604482015290519081900360640190fd5b600b805460ff60801b19167002000000000000000000000000000000001790556002546001600160a01b031633148061205157506000546001600160a01b031633145b6120a2576040805162461bcd60e51b815260206004820152601460248201527f4f6e6c79206f7261636c65206f72206f776e6572000000000000000000000000604482015290519081900360640190fd5b60035467ffffffffffffffff16151580612103576040805162461bcd60e51b815260206004820152601160248201527f4d61726b6574206e6f7420636c6f736564000000000000000000000000000000604482015290519081900360640190fd5b60648351111561215a576040805162461bcd60e51b815260206004820152600f60248201527f426174636820746f6f206c617267650000000000000000000000000000000000604482015290519081900360640190fd5b600254600160d01b900461ffff1660005b84518110156122115760006004600087848151811061218657fe5b60200260200101516001600160a01b03166001600160a01b0316815260200190815260200160002090508380156121bf57506003810154155b80156121df575061ffff8316600090815260048201602052604090205415155b15612208576122008683815181106121f357fe5b6020026020010151613e86565b506001850194505b5060010161216b565b505050600b805460ff60801b1916600160801b179055919050565b600554606090819067ffffffffffffffff8111801561224a57600080fd5b50604051908082528060200260200182016040528015612274578160200160208202803683370190505b5060055490925067ffffffffffffffff8111801561229157600080fd5b506040519080825280602002602001820160405280156122bb578160200160208202803683370190505b50905060015b600254600160c01b900461ffff168111612337576122eb610b478268010000000000000000611587565b8382815181106122f757fe5b6020908102919091010152612318610b478268010000000000000000611011565b82828151811061232457fe5b60209081029190910101526001016122c1565b509091565b6000546001600160a01b031615801561235e57506001546001600160a01b0316155b6123af576040805162461bcd60e51b815260206004820152601360248201527f416c726561647920696e697469616c697a656400000000000000000000000000604482015290519081900360640190fd5b600080547fffffffffffffffffffffffff000000000000000000000000000000000000000090811633178255600180546001600160a01b038516921682179055604080517f313ce567000000000000000000000000000000000000000000000000000000008152905163313ce56791600480820192602092909190829003018186803b15801561243e57600080fd5b505afa158015612452573d6000803e3d6000fd5b505050506040513d602081101561246857600080fd5b50519050601260ff821611156124c5576040805162461bcd60e51b815260206004820152601060248201527f496e76616c696420646563696d616c7300000000000000000000000000000000604482015290519081900360640190fd5b60ff16600a0a60065550565b600080546001600160a01b0316331461251e576040805162461bcd60e51b815260206004820152600a60248201526927b7363c9037bbb732b960b11b604482015290519081900360640190fd5b6118a28383878761398e565b6002546001600160a01b03163314612589576040805162461bcd60e51b815260206004820152600b60248201527f4f6e6c79206f7261636c65000000000000000000000000000000000000000000604482015290519081900360640190fd5b60025474010000000000000000000000000000000000000000900463ffffffff1681146125fd576040805162461bcd60e51b815260206004820152600e60248201527f496e76616c6964206d61726b6574000000000000000000000000000000000000604482015290519081900360640190fd5b600354600160c01b900460ff161561265c576040805162461bcd60e51b815260206004820152601c60248201527f44617465207570646174657320616c726561647920656e61626c656400000000604482015290519081900360640190fd5b50600380547fffffffffffffff00ffffffffffffffffffffffffffffffffffffffffffffffff16600160c01b179055565b600b54600090600160801b900460ff166001146126f1576040805162461bcd60e51b815260206004820152600b60248201527f556e617661696c61626c65000000000000000000000000000000000000000000604482015290519081900360640190fd5b600b805460ff60801b19167002000000000000000000000000000000001790556000546001600160a01b0316331461275d576040805162461bcd60e51b815260206004820152600a60248201526927b7363c9037bbb732b960b11b604482015290519081900360640190fd5b60035467ffffffffffffffff166127bb576040805162461bcd60e51b815260206004820152601160248201527f4d61726b6574206e6f7420636c6f736564000000000000000000000000000000604482015290519081900360640190fd5b6127c3610a22565b60015490915061156f906001600160a01b031683836133c4565b6000546001600160a01b03163314612829576040805162461bcd60e51b815260206004820152600a60248201526927b7363c9037bbb732b960b11b604482015290519081900360640190fd5b8082111561287e576040805162461bcd60e51b815260206004820152601160248201527f496e76616c6964206e6577206461746573000000000000000000000000000000604482015290519081900360640190fd5b60035468010000000000000000900467ffffffffffffffff1615806128ac5750600354600160c01b900460ff165b6128fd576040805162461bcd60e51b815260206004820152601560248201527f4461746520757064617465732064697361626c65640000000000000000000000604482015290519081900360640190fd5b600380547fffffffffffffffffffffffffffffffff0000000000000000ffffffffffffffff166801000000000000000067ffffffffffffffff8581168202929092177fffffffffffffffff0000000000000000ffffffffffffffffffffffffffffffff16600160801b8584168102919091177fffffffffffffff00ffffffffffffffffffffffffffffffffffffffffffffffff1693849055604080519285048416835293049091166020820152815133927f524731f140a86c3695b15a41460f21cb17c43c088e2814a898929965ca0d0b3f928290030190a25050565b60035468010000000000000000900467ffffffffffffffff1681565b6000546001600160a01b03163314612a42576040805162461bcd60e51b815260206004820152600a60248201526927b7363c9037bbb732b960b11b604482015290519081900360640190fd5b6001600160a01b038116612a9d576040805162461bcd60e51b815260206004820152601160248201527f496e76616c6964206e6577206f776e6572000000000000000000000000000000604482015290519081900360640190fd5b600080546040516001600160a01b03808516939216917f8be0079c531659141344cd1fd0a4f28419497f9722a3daafe3b4186f6b6457e091a3600080547fffffffffffffffffffffffff0000000000000000000000000000000000000000166001600160a01b0392909216919091179055565b600b54600090600160801b900460ff16600114612b74576040805162461bcd60e51b815260206004820152600b60248201527f556e617661696c61626c65000000000000000000000000000000000000000000604482015290519081900360640190fd5b600b805460ff60801b1916700200000000000000000000000000000000179055612ba084843380613564565b905081156119c957818111156119c9576040805162461bcd60e51b815260206004820152601160248201527f42757920636f737420746f6f2068696768000000000000000000000000000000604482015290519081900360640190fd5b6001546001600160a01b031681565b6000600f82810b9084900b037fffffffffffffffffffffffffffffffff800000000000000000000000000000008112801590612c5857506f7fffffffffffffffffffffffffffffff8113155b61166657600080fd5b6006546000908190600f0b67800000000000000081612c7c57fe5b059050611666612c8c84836140bf565b600654614113565b600082821115612ceb576040805162461bcd60e51b815260206004820152601e60248201527f536166654d6174683a207375627472616374696f6e206f766572666c6f770000604482015290519081900360640190fd5b50900390565b600082612d0057506000611163565b82820282848281612d0d57fe5b04146116665760405162461bcd60e51b81526004018080602001828103825260218152602001806156d36021913960400191505060405180910390fd5b6000808211612da0576040805162461bcd60e51b815260206004820152601a60248201527f536166654d6174683a206469766973696f6e206279207a65726f000000000000604482015290519081900360640190fd5b818381612da957fe5b049392505050565b604080516001600160a01b0380861660248301528416604482015260648082018490528251808303909101815260849091019091526020810180517bffffffffffffffffffffffffffffffffffffffffffffffffffffffff167f23b872dd00000000000000000000000000000000000000000000000000000000179052612e39908590614195565b50505050565b600280547fffffffffffffffff00000000ffffffffffffffffffffffffffffffffffffffff167401000000000000000000000000000000000000000063ffffffff881602177fffffffffffffffffffffffff0000000000000000000000000000000000000000166001600160a01b038616177fffffffffffff0000ffffffffffffffffffffffffffffffffffffffffffffffff16600160c01b61ffff861602179055612eea82614246565b600a60106101000a8154816fffffffffffffffffffffffffffffffff0219169083600f0b6fffffffffffffffffffffffffffffffff1602179055506000612f30846133a6565b90506000612f4083612710614250565b9050612f5d81612f5884612f5386614299565b6142d3565b613333565b60088054600f9290920b6fffffffffffffffffffffffffffffffff167fffffffffffffffffffffffffffffffff00000000000000000000000000000000909216919091179055612fae85600161432a565b67ffffffffffffffff81118015612fc457600080fd5b50604051908082528060200260200182016040528015612fee578160200160208202803683370190505b508051613003916005916020909101906155c1565b5060015b8581116130d557600a5460058054600160801b909204600f0b918390811061302b57fe5b90600052602060002090600291828204019190066010026101000a8154816fffffffffffffffffffffffffffffffff0219169083600f0b6fffffffffffffffffffffffffffffffff1602179055506130a1600960109054906101000a9004600f0b600a60109054906101000a9004600f0b6140bf565b60098054600f9290920b6fffffffffffffffffffffffffffffffff908116600160801b029216919091179055600101613007565b506130e2620186a06133a6565b600880546fffffffffffffffffffffffffffffffff908116600160801b600f94850b92909216820217918290556009546000936131279392909104810b91900b6142d3565b90506131a9600580548060200260200160405190810160405280929190818152602001828054801561319e57602002820191906000526020600020906000905b82829054906101000a9004600f0b600f0b81526020019060100190602082600f010492830192600103820291508084116131675790505b505050505082614384565b60098054600f9290920b6fffffffffffffffffffffffffffffffff167fffffffffffffffffffffffffffffffff000000000000000000000000000000009092169190911790555050600b805460ff60801b1916600160801b179055505050505050565b600554600090819067ffffffffffffffff8111801561322a57600080fd5b50604051908082528060200260200182016040528015613254578160200160208202803683370190505b50905060015b600254600160c01b900461ffff1681116132c7576005818154811061327b57fe5b90600052602060002090600291828204019190066010029054906101000a9004600f0b8282815181106132aa57fe5b600f92830b90920b6020928302919091019091015260010161325a565b506132e58185815181106132d757fe5b602002602001015184612c0c565b8185815181106132f157fe5b600f92830b830b602091820292909201015260085460095460009261332792810b91612f5391600160801b909104900b87612c0c565b905061115e8282614384565b600081600f0b6000141561334657600080fd5b600082600f0b604085600f0b901b8161335b57fe5b0590507fffffffffffffffffffffffffffffffff800000000000000000000000000000008112801590612c5857506f7fffffffffffffffffffffffffffffff81131561166657600080fd5b6000677fffffffffffffff8211156133bd57600080fd5b5060401b90565b604080516001600160a01b038416602482015260448082018490528251808303909101815260649091019091526020810180517bffffffffffffffffffffffffffffffffffffffffffffffffffffffff167fa9059cbb00000000000000000000000000000000000000000000000000000000179052613444908490614195565b505050565b600554600090819067ffffffffffffffff8111801561346757600080fd5b50604051908082528060200260200182016040528015613491578160200160208202803683370190505b50905060015b600254600160c01b900461ffff16811161350457600581815481106134b857fe5b90600052602060002090600291828204019190066010029054906101000a9004600f0b8282815181106134e757fe5b600f92830b90920b60209283029190910190910152600101613497565b5061352281858151811061351457fe5b6020026020010151846140bf565b81858151811061352e57fe5b600f92830b830b602091820292909201015260085460095460009261332792810b91612f5391600160801b909104900b876140bf565b600061356e614466565b60008511801561358b5750600254600160c01b900461ffff168511155b6135dc576040805162461bcd60e51b815260206004820152600f60248201527f496e76616c6964206f7574636f6d650000000000000000000000000000000000604482015290519081900360640190fd5b600084600f0b1380156135ff575068010000000000000000600f85900b07600f0b155b613650576040805162461bcd60e51b815260206004820152600e60248201527f496e76616c696420616d6f756e74000000000000000000000000000000000000604482015290519081900360640190fd5b6136896005868154811061366057fe5b90600052602060002090600291828204019190066010029054906101000a9004600f0b856140bf565b6005868154811061369657fe5b90600052602060002090600291828204019190066010026101000a8154816fffffffffffffffffffffffffffffffff0219169083600f0b6fffffffffffffffffffffffffffffffff16021790555060006136ff600960109054906101000a9004600f0b866140bf565b60085490915060009061371590600f0b836142d3565b90506000613799600580548060200260200160405190810160405280929190818152602001828054801561378e57602002820191906000526020600020906000905b82829054906101000a9004600f0b600f0b81526020019060100190602082600f010492830192600103820291508084116137575790505b505050505083614384565b6009549091506000906137b0908390600f0b612c0c565b600980547fffffffffffffffffffffffffffffffff0000000000000000000000000000000016600f85810b6fffffffffffffffffffffffffffffffff908116929092178216600160801b9189900b9290921602179055905061381181612c61565b945060008511613868576040805162461bcd60e51b815260206004820152600c60248201527f496e76616c696420636f73740000000000000000000000000000000000000000604482015290519081900360640190fd5b600154613880906001600160a01b0316873088612db1565b600061388b89612c61565b600b805467ffffffffffffffff808216600190810182167fffffffffffffffffffffffffffffffffffffffffffffffff0000000000000000938416179093556001600160a01b038c16600090815260046020526040902080548083168501909216919092161781559081015491925090613905908861432a565b600182015560008b8152600482016020526040902054613925908361432a565b60008c815260048301602090815260409182902092909255805184815291820189905280518d926001600160a01b038d16927f849165c18b9d0fb161bcb145e4ab523d350e5c98f1dbbb1960331e7ee3ca676792918290030190a3505050505050949350505050565b6000613998614466565b6008546000600160801b909104600f90810b900b136139fe576040805162461bcd60e51b815260206004820152601560248201527f4d61726b65742073656c6c732064697361626c65640000000000000000000000604482015290519081900360640190fd5b600085118015613a1b5750600254600160c01b900461ffff168511155b613a6c576040805162461bcd60e51b815260206004820152600f60248201527f496e76616c6964206f7574636f6d650000000000000000000000000000000000604482015290519081900360640190fd5b600084600f0b138015613a8f575068010000000000000000600f85900b07600f0b155b613ae0576040805162461bcd60e51b815260206004820152600e60248201527f496e76616c696420616d6f756e74000000000000000000000000000000000000604482015290519081900360640190fd5b6001600160a01b03831660009081526004602081815260408084208985529283019091528220549091613b1287612c61565b905080821015613b69576040805162461bcd60e51b815260206004820152601360248201527f496e73756666696369656e742073686172657300000000000000000000000000604482015290519081900360640190fd5b613ba260058981548110613b7957fe5b90600052602060002090600291828204019190066010029054906101000a9004600f0b88612c0c565b60058981548110613baf57fe5b90600052602060002090600291828204019190066010026101000a8154816fffffffffffffffffffffffffffffffff0219169083600f0b6fffffffffffffffffffffffffffffffff1602179055506000613c18600960109054906101000a9004600f0b89612c0c565b600854909150600090613c2e90600f0b836142d3565b90506000613c92600580548060200260200160405190810160405280929190818152602001828054801561378e5760009182526020918290208054600f90810b900b8452908202830192909160109101808411613757579050505050505083614384565b600954909150600090613ca890600f0b83612c0c565b9050600081600f0b1215613d03576040805162461bcd60e51b815260206004820152601260248201527f496e76616c69642064656c746120636f73740000000000000000000000000000604482015290519081900360640190fd5b600854600090613d1e908390600160801b9004600f0b613333565b600980547fffffffffffffffffffffffffffffffff0000000000000000000000000000000016600f86810b6fffffffffffffffffffffffffffffffff908116929092178216600160801b918a900b92909216021790559050613d83610b478383612c0c565b600b805467ffffffffffffffff6801000000000000000080830482166001908101831682027fffffffffffffffffffffffffffffffff0000000000000000ffffffffffffffff948516179094558c5481810483169094019091160291161789556002890154909950613df5908a61432a565b6002890155613e048787612c94565b60008e815260048a016020526040902055600154613e2c906001600160a01b03168b8b6133c4565b8c8b6001600160a01b03167f019eed797248695407e185a0977fa0dba8bbaaba6c2f6f4a8bdf6fb32e62ba23888c604051808381526020018281526020019250505060405180910390a35050505050505050949350505050565b60035460009067ffffffffffffffff16613ee7576040805162461bcd60e51b815260206004820152601160248201527f4d61726b6574206e6f7420636c6f736564000000000000000000000000000000604482015290519081900360640190fd5b6001600160a01b03821660009081526004602052604090206003015415613f55576040805162461bcd60e51b815260206004820152601760248201527f53686172657320616c72656164792072656465656d6564000000000000000000604482015290519081900360640190fd5b506001600160a01b0381166000908152600460208181526040808420600254600160d01b900461ffff168552909201905290205480613fdb576040805162461bcd60e51b815260206004820152601160248201527f4e6f7468696e6720746f2072656465656d000000000000000000000000000000604482015290519081900360640190fd5b600a54613ff390600f0b613fee83614246565b6140bf565b600a8054600f9290920b6fffffffffffffffffffffffffffffffff167fffffffffffffffffffffffffffffffff000000000000000000000000000000009092169190911790556001600160a01b038083166000908152600460205260409020600301829055600154614067911683836133c4565b60025460408051838152602081018490528151600160d01b90930461ffff16926001600160a01b038616927fc2c19174f35fcb7370641b55802c8f596e4827983eefbb49c33373ac0cad5a1d928290030190a3919050565b6000600f83810b9083900b017fffffffffffffffffffffffffffffffff800000000000000000000000000000008112801590612c5857506f7fffffffffffffffffffffffffffffff81131561166657600080fd5b60008161412257506000611163565b600083600f0b121561413357600080fd5b600f83900b6fffffffffffffffffffffffffffffffff8316810260401c90608084901c0277ffffffffffffffffffffffffffffffffffffffffffffffff81111561417c57600080fd5b60401b811981111561418d57600080fd5b019392505050565b60006141ea826040518060400160405280602081526020017f5361666545524332303a206c6f772d6c6576656c2063616c6c206661696c6564815250856001600160a01b03166145b09092919063ffffffff16565b8051909150156134445780806020019051602081101561420957600080fd5b50516134445760405162461bcd60e51b815260040180806020018281038252602a8152602001806156f4602a913960400191505060405180910390fd5b6000611163826006545b60008161425c57600080fd5b600061426884846145c7565b90506f7fffffffffffffffffffffffffffffff6fffffffffffffffffffffffffffffffff8216111561166657600080fd5b60008082600f0b136142aa57600080fd5b60806142b583614743565b600f0b6fb17217f7d1cf79abc9e3b39803f2f6af02901c9050919050565b6000600f83810b9083900b0260401d7fffffffffffffffffffffffffffffffff800000000000000000000000000000008112801590612c5857506f7fffffffffffffffffffffffffffffff81131561166657600080fd5b600082820183811015611666576040805162461bcd60e51b815260206004820152601b60248201527f536166654d6174683a206164646974696f6e206f766572666c6f770000000000604482015290519081900360640190fd5b6000806001845103905060006143ae856001815181106143a057fe5b602002602001015185613333565b905060025b8281116143f65760006143d98783815181106143cb57fe5b602002602001015187613333565b905082600f0b81600f0b13156143ed578092505b506001016143b3565b50600060015b83811161444557600061442288838151811061441457fe5b602002602001015188613333565b905061443a83613fee6144358488612c0c565b614845565b9250506001016143fc565b5061445c85612f5361445684614299565b856140bf565b9695505050505050565b60035467ffffffffffffffff680100000000000000008204811691600160801b810482169116428311156144e1576040805162461bcd60e51b815260206004820152601260248201527f4d61726b6574206e6f7420737461727465640000000000000000000000000000604482015290519081900360640190fd5b67ffffffffffffffff8216158061450257508167ffffffffffffffff164211155b614553576040805162461bcd60e51b815260206004820152600c60248201527f4d61726b657420656e6465640000000000000000000000000000000000000000604482015290519081900360640190fd5b67ffffffffffffffff811615613444576040805162461bcd60e51b815260206004820152601560248201527f4d61726b657420616c726561647920636c6f7365640000000000000000000000604482015290519081900360640190fd5b60606145bf84846000856148b5565b949350505050565b6000816145d357600080fd5b600077ffffffffffffffffffffffffffffffffffffffffffffffff84116146095782604085901b8161460157fe5b049050614726565b60c084811c6401000000008110614622576020918201911c5b620100008110614634576010918201911c5b6101008110614645576008918201911c5b60108110614655576004918201911c5b60048110614665576002918201911c5b60028110614674576001820191505b60bf820360018603901c6001018260ff0387901b8161468f57fe5b0492506fffffffffffffffffffffffffffffffff8311156146af57600080fd5b608085901c83026fffffffffffffffffffffffffffffffff8616840260c088901c604089901b828110156146e4576001820391505b608084901b929003828110156146fb576001820391505b829003608084901c821461471057600161471b565b88818161471957fe5b045b870196505050505050505b6fffffffffffffffffffffffffffffffff81111561166657600080fd5b60008082600f0b1361475457600080fd5b6000600f83900b680100000000000000008112614773576040918201911d5b6401000000008112614787576020918201911d5b620100008112614799576010918201911d5b61010081126147aa576008918201911d5b601081126147ba576004918201911d5b600481126147ca576002918201911d5b600281126147d9576001820191505b7fffffffffffffffffffffffffffffffffffffffffffffffffffffffffffffffc0820160401b600f85900b607f8490031b6780000000000000005b600081131561483a5790800260ff81901c8281029390930192607f011c9060011d614814565b509095945050505050565b60006840000000000000000082600f0b1261485f57600080fd5b7fffffffffffffffffffffffffffffffffffffffffffffffc0000000000000000082600f0b121561489257506000610a1d565b611163608083600f0b700171547652b82fe1777d0ffda0d23a7d1202901d614a2e565b6060824710156148f65760405162461bcd60e51b81526004018080602001828103825260268152602001806156ad6026913960400191505060405180910390fd5b6148ff85615517565b614950576040805162461bcd60e51b815260206004820152601d60248201527f416464726573733a2063616c6c20746f206e6f6e2d636f6e7472616374000000604482015290519081900360640190fd5b600080866001600160a01b031685876040518082805190602001908083835b602083106149ac57805182527fffffffffffffffffffffffffffffffffffffffffffffffffffffffffffffffe0909201916020918201910161496f565b6001836020036101000a03801982511681845116808217855250505050505090500191505060006040518083038185875af1925050503d8060008114614a0e576040519150601f19603f3d011682016040523d82523d6000602084013e614a13565b606091505b5091509150614a2382828661551d565b979650505050505050565b60006840000000000000000082600f0b12614a4857600080fd5b7fffffffffffffffffffffffffffffffffffffffffffffffc0000000000000000082600f0b1215614a7b57506000610a1d565b6f8000000000000000000000000000000060006780000000000000008416600f0b1315614ab95770016a09e667f3bcc908b2fb1366ea957d3e0260801c5b60008367400000000000000016600f0b1315614ae6577001306fe0a31b7152de8d5a46305c85edec0260801c5b60008367200000000000000016600f0b1315614b13577001172b83c7d517adcdf7c8c50eb14a791f0260801c5b60008367100000000000000016600f0b1315614b405770010b5586cf9890f6298b92b71842a983630260801c5b60008367080000000000000016600f0b1315614b6d577001059b0d31585743ae7c548eb68ca417fd0260801c5b60008367040000000000000016600f0b1315614b9a57700102c9a3e778060ee6f7caca4f7a29bde80260801c5b60008367020000000000000016600f0b1315614bc75770010163da9fb33356d84a66ae336dcdfa3f0260801c5b60008367010000000000000016600f0b1315614bf457700100b1afa5abcbed6129ab13ec11dc95430260801c5b600083668000000000000016600f0b1315614c205770010058c86da1c09ea1ff19d294cf2f679b0260801c5b600083664000000000000016600f0b1315614c4c577001002c605e2e8cec506d21bfc89a23a00f0260801c5b600083662000000000000016600f0b1315614c7857700100162f3904051fa128bca9c55c31e5df0260801c5b600083661000000000000016600f0b1315614ca4577001000b175effdc76ba38e31671ca9397250260801c5b600083660800000000000016600f0b1315614cd057700100058ba01fb9f96d6cacd4b180917c3d0260801c5b600083660400000000000016600f0b1315614cfc5770010002c5cc37da9491d0985c348c68e7b30260801c5b600083660200000000000016600f0b1315614d28577001000162e525ee054754457d59952920260260801c5b600083660100000000000016600f0b1315614d545770010000b17255775c040618bf4a4ade83fc0260801c5b6000836580000000000016600f0b1315614d7f577001000058b91b5bc9ae2eed81e9b7d4cfab0260801c5b6000836540000000000016600f0b1315614daa57700100002c5c89d5ec6ca4d7c8acc017b7c90260801c5b6000836520000000000016600f0b1315614dd55770010000162e43f4f831060e02d839a9d16d0260801c5b6000836510000000000016600f0b1315614e0057700100000b1721bcfc99d9f890ea069117630260801c5b6000836508000000000016600f0b1315614e2b5770010000058b90cf1e6d97f9ca14dbcc16280260801c5b6000836504000000000016600f0b1315614e56577001000002c5c863b73f016468f6bac5ca2b0260801c5b6000836502000000000016600f0b1315614e8157700100000162e430e5a18f6119e3c02282a50260801c5b6000836501000000000016600f0b1315614eac577001000000b1721835514b86e6d96efd1bfe0260801c5b60008364800000000016600f0b1315614ed657700100000058b90c0b48c6be5df846c5b2ef0260801c5b60008364400000000016600f0b1315614f005770010000002c5c8601cc6b9e94213c72737a0260801c5b60008364200000000016600f0b1315614f2a577001000000162e42fff037df38aa2b219f060260801c5b60008364100000000016600f0b1315614f545770010000000b17217fba9c739aa5819f44f90260801c5b60008364080000000016600f0b1315614f7e577001000000058b90bfcdee5acd3c1cedc8230260801c5b60008364040000000016600f0b1315614fa857700100000002c5c85fe31f35a6a30da1be500260801c5b60008364020000000016600f0b1315614fd25770010000000162e42ff0999ce3541b9fffcf0260801c5b60008364010000000016600f0b1315614ffc57700100000000b17217f80f4ef5aadda455540260801c5b600083638000000016600f0b13156150255770010000000058b90bfbf8479bd5a81b51ad0260801c5b600083634000000016600f0b131561504e577001000000002c5c85fdf84bd62ae30a74cc0260801c5b600083632000000016600f0b131561507757700100000000162e42fefb2fed257559bdaa0260801c5b600083631000000016600f0b13156150a0577001000000000b17217f7d5a7716bba4a9ae0260801c5b600083630800000016600f0b13156150c957700100000000058b90bfbe9ddbac5e109cce0260801c5b600083630400000016600f0b13156150f25770010000000002c5c85fdf4b15de6f17eb0d0260801c5b600083630200000016600f0b131561511b577001000000000162e42fefa494f1478fde050260801c5b600083630100000016600f0b13156151445770010000000000b17217f7d20cf927c8e94c0260801c5b6000836280000016600f0b131561516c577001000000000058b90bfbe8f71cb4e4b33d0260801c5b6000836240000016600f0b131561519457700100000000002c5c85fdf477b662b269450260801c5b6000836220000016600f0b13156151bc5770010000000000162e42fefa3ae53369388c0260801c5b6000836210000016600f0b13156151e457700100000000000b17217f7d1d351a389d400260801c5b6000836208000016600f0b131561520c5770010000000000058b90bfbe8e8b2d3d4ede0260801c5b6000836204000016600f0b1315615234577001000000000002c5c85fdf4741bea6e77e0260801c5b6000836202000016600f0b131561525c57700100000000000162e42fefa39fe95583c20260801c5b6000836201000016600f0b1315615284577001000000000000b17217f7d1cfb72b45e10260801c5b60008361800016600f0b13156152ab57700100000000000058b90bfbe8e7cc35c3f00260801c5b60008361400016600f0b13156152d25770010000000000002c5c85fdf473e242ea380260801c5b60008361200016600f0b13156152f9577001000000000000162e42fefa39f02b772c0260801c5b60008361100016600f0b13156153205770010000000000000b17217f7d1cf7d83c1a0260801c5b60008361080016600f0b1315615347577001000000000000058b90bfbe8e7bdcbe2e0260801c5b60008361040016600f0b131561536e57700100000000000002c5c85fdf473dea871f0260801c5b60008361020016600f0b13156153955770010000000000000162e42fefa39ef44d910260801c5b60008361010016600f0b13156153bc57700100000000000000b17217f7d1cf79e9490260801c5b600083608016600f0b13156153e25770010000000000000058b90bfbe8e7bce5440260801c5b600083604016600f0b1315615408577001000000000000002c5c85fdf473de6eca0260801c5b600083602016600f0b131561542e57700100000000000000162e42fefa39ef366f0260801c5b600083601016600f0b1315615454577001000000000000000b17217f7d1cf79afa0260801c5b600083600816600f0b131561547a57700100000000000000058b90bfbe8e7bcd6d0260801c5b600083600416600f0b13156154a05770010000000000000002c5c85fdf473de6b20260801c5b600083600216600f0b13156154c6577001000000000000000162e42fefa39ef3580260801c5b600083600116600f0b13156154ec5770010000000000000000b17217f7d1cf79ab0260801c5b600f83810b60401d603f03900b1c6f7fffffffffffffffffffffffffffffff81111561116357600080fd5b3b151590565b6060831561552c575081611666565b82511561553c5782518084602001fd5b8160405162461bcd60e51b81526004018080602001828103825283818151815260200191508051906020019080838360005b8381101561558657818101518382015260200161556e565b50505050905090810190601f1680156155b35780820380516001836020036101000a031916815260200191505b509250505060405180910390fd5b828054828255906000526020600020906001016002900481019282156156875791602002820160005b8382111561564957835183826101000a8154816fffffffffffffffffffffffffffffffff0219169083600f0b6fffffffffffffffffffffffffffffffff1602179055509260200192601001602081600f010492830192600103026155ea565b80156156855782816101000a8154906fffffffffffffffffffffffffffffffff0219169055601001602081600f01049283019260010302615649565b505b50615693929150615697565b5090565b5b80821115615693576000815560010161569856fe416464726573733a20696e73756666696369656e742062616c616e636520666f722063616c6c536166654d6174683a206d756c7469706c69636174696f6e206f766572666c6f775361666545524332303a204552433230206f7065726174696f6e20646964206e6f742073756363656564a26469706673582212205a5c4dbdff3c98d4fb1c8c0ba7690057f12ab326f4bf10d57b3d8108f29930fb64736f6c63430007060033",
  "devdoc": {
    "author": "Marto (https://github.com/0xMarto)",
    "details": "Feel free to leave any code improvements (DMs are open @0xMarto)",
    "kind": "dev",
    "methods": {
      "buy(uint256,int128,uint256)": {
        "params": {
          "_amount": "The number of outcome shares to buy (as a signed 64.64-bit fixed point number)",
          "_maxCost": "Max amount of collateral tokens to spend (0 = no limit, skip slippage check)",
          "_outcome": "The outcome of which shares are being bought (e.g.: 1 for YES, 2 for NO)"
        },
        "returns": {
          "tokenCost": "The total token amount used for buying the specified amount of outcome shares"
        }
      },
      "buyFor(address,address,uint256,int128)": {
        "details": "No reentrancy guard - Owner (PrecogMaster) must use its own lock modifier (to avoid double-locking)",
        "params": {
          "_amount": "The number of outcome shares to buy (as a signed 64.64-bit fixed point number)",
          "_buyer": "The address of the account that receives the outcome shares",
          "_outcome": "The outcome of which shares are being bought (e.g.: 1 for YES, 2 for NO)",
          "_payer": "The address that pays the token cost of the trade (usually the buyer)"
        },
        "returns": {
          "tokenCost": "The total token amount used for buying the specified amount of outcome shares"
        }
      },
      "buyPrice(uint256,int128)": {
        "params": {
          "_amount": "The number of outcome shares to buy (as signed 64.64-bit fixed point number)",
          "_outcome": "The outcome for which shares are being bought"
        },
        "returns": {
          "tokenCost": "The token cost amount (as a signed 64.64-bit fixed point number)"
        }
      },
      "enableDatesUpdate(uint256)": {
        "details": "Used when the oracle authorize/request early market closure",
        "params": {
          "_id": "The unique identifier of the market"
        }
      },
      "getAccountOutcomeBalances(address)": {
        "params": {
          "_account": "The address of the account to query"
        },
        "returns": {
          "balances": "The balances of shares for all outcomes (indexed by outcome)"
        }
      },
      "getAccountStats(address)": {
        "params": {
          "_account": "Address of the account to query"
        },
        "returns": {
          "buys": "Total number of buy operations executed by the account",
          "deposited": "Total collateral deposited via buy operations",
          "redeemed": "Total collateral withdrawn via redeem operation (equal to total redeemed shares)",
          "sells": "Total number of sell operations executed by the account",
          "withdrawn": "Total collateral withdrawn via sell operations"
        }
      },
      "getMarketInfo()": {
        "returns": {
          "_0": "totalShares The current total shares minted for all outcomes of the market",
          "_1": "sharesBalances Balances of all outcomes (indexed by outcome)",
          "_2": "totalRedeemedShares Total redeemed shares of the reported outcome",
          "_3": "currentCost The current liquidity of the market",
          "_4": "totalBuys Buys counter of the market",
          "_5": "totalSells Sells counter of the market"
        }
      },
      "getMarketSetupInfo()": {
        "returns": {
          "_0": "initialShares The total initial shares minted for each outcome [ qi ]",
          "_1": "alpha The calculated alpha the market [ overround/(n.log(n)) ]",
          "_2": "outcomes Total amount of possible outcomes of the market [ n ]",
          "_3": "sellFeeFactor used to mitigate token leaks and calculate sell fees [ 1/sellFeeFactor ]",
          "_4": "initialCollateral The total initial collateral received on market setup [ funding ]"
        }
      },
      "getPrices()": {
        "details": "Helper function to fast calculate market prediction and spreads",
        "returns": {
          "buyPrices": "buy price of 1 share for all outcomes (indexed by outcome)",
          "sellPrices": "sell price of 1 share for all outcomes (indexed by outcome)"
        }
      },
      "initialize(address)": {
        "params": {
          "_token": "ERC-20 token will be used to purchase and redeem rewards for the market"
        }
      },
      "redeemBatch(address[])": {
        "details": "The list of accounts could be calculated using the \"SharesBought\" event",
        "params": {
          "_accounts": "The list of accounts to redeem shares for (skips account if can not redeem)"
        },
        "returns": {
          "redeems": "The number of successful redeems"
        }
      },
      "redeemFor(address)": {
        "details": "No reentrancy guard - Owner (PrecogMaster) must use its own lock modifier (to avoid double-locking)",
        "params": {
          "_account": "The address of the account with winning shares of the market"
        },
        "returns": {
          "redeemedShares": "The number of shares redeemed"
        }
      },
      "redeemShares()": {
        "returns": {
          "redeemedShares": "The number of shares redeemed"
        }
      },
      "reportResult(uint256,uint256)": {
        "params": {
          "_id": "The unique identifier of the market",
          "_outcome": "The outcome that is reported as the result of the market"
        }
      },
      "sell(uint256,int128,uint256)": {
        "params": {
          "_amount": "The number of outcome shares to sell (as a signed 64.64-bit fixed point number)",
          "_minReturn": "Min amount of collateral tokens to obtain (slippage protection)",
          "_outcome": "The outcome of which shares are being sold (e.g.: 1 for YES, 2 for NO)"
        },
        "returns": {
          "tokenReturn": "The total amount of tokens received from selling the outcome shares"
        }
      },
      "sellFor(address,address,uint256,int128)": {
        "details": "No reentrancy guard - Owner (PrecogMaster) must use its own lock modifier (to avoid double-locking)",
        "params": {
          "_amount": "The number of outcome shares to sell (as a signed 64.64-bit fixed point number)",
          "_outcome": "The outcome for which shares are being sold (e.g.: 1 for YES, 2 for NO)",
          "_receiver": "The address that receive the token return of the trade (usually the seller)",
          "_seller": "The address of the account that sells the shares balance"
        },
        "returns": {
          "tokenReturn": "The total amount of tokens received from selling the outcome shares"
        }
      },
      "sellPrice(uint256,int128)": {
        "params": {
          "_amount": "The number of outcome shares to sell (as signed 64.64-bit fixed point number)",
          "_outcome": "The outcome for which shares are being sold"
        },
        "returns": {
          "tokenReturn": "The token return amount (as a signed 64.64-bit fixed point number)"
        }
      },
      "setup(uint256,address,uint256,uint256,uint256)": {
        "params": {
          "_id": "The unique identifier for the market",
          "_liquidity": "The initial funding used to seed the market (defined on initialized token)",
          "_oracle": "The address of the oracle that will report the result",
          "_outcomes": "The number of possible outcomes for the market",
          "_overround": "The AMM profit margin in basis points (bps) [recommended: (100 * _totalOutcomes)]"
        }
      },
      "setupVL(uint256,address,uint256,uint256,uint256,uint256)": {
        "params": {
          "_funding": "liquidity used to collateralize the market (should be higher than max theoretical loss)",
          "_id": "The unique identifier for the market",
          "_liquidity": "Initial virtual liquidity used to seed the market (defined on initialized token)",
          "_oracle": "The address of the oracle that will report the result",
          "_outcomes": "Total number of possible outcomes for the market",
          "_overround": "The AMM profit margin in basis points (bps) [recommended: (100 * _totalOutcomes)]"
        }
      },
      "transferOwnership(address)": {
        "params": {
          "_newOwner": "The address of the new owner"
        }
      },
      "updateDates(uint256,uint256)": {
        "params": {
          "_newEndTimestamp": "The timestamp when the market stops allowing trading",
          "_newStartTimestamp": "The timestamp when the market starts allowing trading"
        }
      },
      "updateOracle(address)": {
        "params": {
          "_newOracle": "The address of the EOA or contract that can close the market"
        }
      },
      "updateSellFeeFactor(uint256)": {
        "params": {
          "_newSellFeeFactor": "Used to calculate sell fees (1/sellFeeFactor) and mitigate leaks on math roundings"
        }
      },
      "withdraw(address)": {
        "details": "Emergency function to rescue funds received by the market",
        "params": {
          "_token": "The address of the ERC-20 token to withdraw"
        }
      },
      "withdrawAvailableCollateral(address)": {
        "params": {
          "_to": "The destination address of the ERC-20 collateral to withdraw"
        }
      }
    },
    "title": "PrecogMarketV8: An implementation for Liquidity-Sensitive LMSR market maker in Solidity",
    "version": 1
  },
  "userdoc": {
    "kind": "user",
    "methods": {
      "buy(uint256,int128,uint256)": {
        "notice": "Buys outcome shares for the specified outcome"
      },
      "buyFor(address,address,uint256,int128)": {
        "notice": "Execute internal buy for received buyer and payer (limited to only owner)"
      },
      "buyPrice(uint256,int128)": {
        "notice": "Gets the cost of buying the specified amount of outcome shares"
      },
      "enableDatesUpdate(uint256)": {
        "notice": "Authorize market owner to update start and end timestamps (limited to only Oracle)"
      },
      "getAccountOutcomeBalances(address)": {
        "notice": "Gets the amount of shares that an account owns for all outcomes"
      },
      "getAccountStats(address)": {
        "notice": "Returns aggregated trading and settlement statistics for an account"
      },
      "getMarketInfo()": {
        "notice": "Gets the current market state information"
      },
      "getMarketSetupInfo()": {
        "notice": "Gets the market setup parameters"
      },
      "getPrices()": {
        "notice": "Gets current market buy and sell prices for all outcomes"
      },
      "getWithdrawableCollateral()": {
        "notice": "Gets total collateral amount available to be withdraw after all winning shares redeems"
      },
      "initialize(address)": {
        "notice": "Constructor like function for the market maker"
      },
      "redeemBatch(address[])": {
        "notice": "Redeems shares in batch for multiple accounts  (limited to only Oracle or Owner)"
      },
      "redeemFor(address)": {
        "notice": "Execute internal redeem for received account (limited to only owner)"
      },
      "redeemShares()": {
        "notice": "Redeems the current sender shares for the result of the market"
      },
      "reportResult(uint256,uint256)": {
        "notice": "Reports the result of the market (limited to only Oracle)"
      },
      "sell(uint256,int128,uint256)": {
        "notice": "Sells outcome shares for the specified outcome"
      },
      "sellFor(address,address,uint256,int128)": {
        "notice": "Execute internal sell for received seller and receiver (limited to only owner)"
      },
      "sellPrice(uint256,int128)": {
        "notice": "Gets the return from selling the specified amount of outcome shares"
      },
      "setup(uint256,address,uint256,uint256,uint256)": {
        "notice": "Sets up the market with the specified parameters"
      },
      "setupVL(uint256,address,uint256,uint256,uint256,uint256)": {
        "notice": "Sets up the market with the Virtual Liquidity received and specified parameters"
      },
      "transferOwnership(address)": {
        "notice": "Transfers the ownership of the contract to a new owner (limited to only owner)"
      },
      "updateDates(uint256,uint256)": {
        "notice": "Updates the start and end timestamps for the market with oracle authorization (limited to only owner)"
      },
      "updateOracle(address)": {
        "notice": "Update the oracle address of the market (limited to only owner)"
      },
      "updateSellFeeFactor(uint256)": {
        "notice": "Update the sell fee factor of the market (limited to only owner)"
      },
      "withdraw(address)": {
        "notice": "Withdraws any non-collateral token or native balance received by the market (limited to only owner)"
      },
      "withdrawAvailableCollateral(address)": {
        "notice": "Withdraws any remaining collateral from the market (limited to only owner)"
      }
    },
    "version": 1
  },
  "storageLayout": {
    "storage": [
      {
        "astId": 10209,
        "contract": "contracts/PrecogMarketV8.sol:PrecogMarketV8",
        "label": "owner",
        "offset": 0,
        "slot": "0",
        "type": "t_address"
      },
      {
        "astId": 10211,
        "contract": "contracts/PrecogMarketV8.sol:PrecogMarketV8",
        "label": "token",
        "offset": 0,
        "slot": "1",
        "type": "t_address"
      },
      {
        "astId": 10213,
        "contract": "contracts/PrecogMarketV8.sol:PrecogMarketV8",
        "label": "oracle",
        "offset": 0,
        "slot": "2",
        "type": "t_address"
      },
      {
        "astId": 10215,
        "contract": "contracts/PrecogMarketV8.sol:PrecogMarketV8",
        "label": "id",
        "offset": 20,
        "slot": "2",
        "type": "t_uint32"
      },
      {
        "astId": 10217,
        "contract": "contracts/PrecogMarketV8.sol:PrecogMarketV8",
        "label": "totalOutcomes",
        "offset": 24,
        "slot": "2",
        "type": "t_uint16"
      },
      {
        "astId": 10219,
        "contract": "contracts/PrecogMarketV8.sol:PrecogMarketV8",
        "label": "result",
        "offset": 26,
        "slot": "2",
        "type": "t_uint16"
      },
      {
        "astId": 10221,
        "contract": "contracts/PrecogMarketV8.sol:PrecogMarketV8",
        "label": "closeTimestamp",
        "offset": 0,
        "slot": "3",
        "type": "t_uint64"
      },
      {
        "astId": 10223,
        "contract": "contracts/PrecogMarketV8.sol:PrecogMarketV8",
        "label": "startTimestamp",
        "offset": 8,
        "slot": "3",
        "type": "t_uint64"
      },
      {
        "astId": 10225,
        "contract": "contracts/PrecogMarketV8.sol:PrecogMarketV8",
        "label": "endTimestamp",
        "offset": 16,
        "slot": "3",
        "type": "t_uint64"
      },
      {
        "astId": 10227,
        "contract": "contracts/PrecogMarketV8.sol:PrecogMarketV8",
        "label": "datesUpdateEnabled",
        "offset": 24,
        "slot": "3",
        "type": "t_bool"
      },
      {
        "astId": 10231,
        "contract": "contracts/PrecogMarketV8.sol:PrecogMarketV8",
        "label": "accounts",
        "offset": 0,
        "slot": "4",
        "type": "t_mapping(t_address,t_struct(AccountData)10207_storage)"
      },
      {
        "astId": 10234,
        "contract": "contracts/PrecogMarketV8.sol:PrecogMarketV8",
        "label": "shares",
        "offset": 0,
        "slot": "5",
        "type": "t_array(t_int128)dyn_storage"
      },
      {
        "astId": 10236,
        "contract": "contracts/PrecogMarketV8.sol:PrecogMarketV8",
        "label": "tokenScale",
        "offset": 0,
        "slot": "6",
        "type": "t_uint256"
      },
      {
        "astId": 10238,
        "contract": "contracts/PrecogMarketV8.sol:PrecogMarketV8",
        "label": "initialCollateral",
        "offset": 0,
        "slot": "7",
        "type": "t_uint256"
      },
      {
        "astId": 10240,
        "contract": "contracts/PrecogMarketV8.sol:PrecogMarketV8",
        "label": "alpha",
        "offset": 0,
        "slot": "8",
        "type": "t_int128"
      },
      {
        "astId": 10242,
        "contract": "contracts/PrecogMarketV8.sol:PrecogMarketV8",
        "label": "sellFeeFactor",
        "offset": 16,
        "slot": "8",
        "type": "t_int128"
      },
      {
        "astId": 10244,
        "contract": "contracts/PrecogMarketV8.sol:PrecogMarketV8",
        "label": "currentCost",
        "offset": 0,
        "slot": "9",
        "type": "t_int128"
      },
      {
        "astId": 10246,
        "contract": "contracts/PrecogMarketV8.sol:PrecogMarketV8",
        "label": "totalShares",
        "offset": 16,
        "slot": "9",
        "type": "t_int128"
      },
      {
        "astId": 10248,
        "contract": "contracts/PrecogMarketV8.sol:PrecogMarketV8",
        "label": "totalRedeemedShares",
        "offset": 0,
        "slot": "10",
        "type": "t_int128"
      },
      {
        "astId": 10250,
        "contract": "contracts/PrecogMarketV8.sol:PrecogMarketV8",
        "label": "initialShares",
        "offset": 16,
        "slot": "10",
        "type": "t_int128"
      },
      {
        "astId": 10252,
        "contract": "contracts/PrecogMarketV8.sol:PrecogMarketV8",
        "label": "totalBuys",
        "offset": 0,
        "slot": "11",
        "type": "t_uint64"
      },
      {
        "astId": 10254,
        "contract": "contracts/PrecogMarketV8.sol:PrecogMarketV8",
        "label": "totalSells",
        "offset": 8,
        "slot": "11",
        "type": "t_uint64"
      },
      {
        "astId": 10256,
        "contract": "contracts/PrecogMarketV8.sol:PrecogMarketV8",
        "label": "unlocked",
        "offset": 16,
        "slot": "11",
        "type": "t_uint8"
      }
    ],
    "types": {
      "t_address": {
        "encoding": "inplace",
        "label": "address",
        "numberOfBytes": "20"
      },
      "t_array(t_int128)dyn_storage": {
        "base": "t_int128",
        "encoding": "dynamic_array",
        "label": "int128[]",
        "numberOfBytes": "32"
      },
      "t_bool": {
        "encoding": "inplace",
        "label": "bool",
        "numberOfBytes": "1"
      },
      "t_int128": {
        "encoding": "inplace",
        "label": "int128",
        "numberOfBytes": "16"
      },
      "t_mapping(t_address,t_struct(AccountData)10207_storage)": {
        "encoding": "mapping",
        "key": "t_address",
        "label": "mapping(address => struct PrecogMarketV8.AccountData)",
        "numberOfBytes": "32",
        "value": "t_struct(AccountData)10207_storage"
      },
      "t_mapping(t_uint256,t_uint256)": {
        "encoding": "mapping",
        "key": "t_uint256",
        "label": "mapping(uint256 => uint256)",
        "numberOfBytes": "32",
        "value": "t_uint256"
      },
      "t_struct(AccountData)10207_storage": {
        "encoding": "inplace",
        "label": "struct PrecogMarketV8.AccountData",
        "members": [
          {
            "astId": 10194,
            "contract": "contracts/PrecogMarketV8.sol:PrecogMarketV8",
            "label": "buys",
            "offset": 0,
            "slot": "0",
            "type": "t_uint64"
          },
          {
            "astId": 10196,
            "contract": "contracts/PrecogMarketV8.sol:PrecogMarketV8",
            "label": "sells",
            "offset": 8,
            "slot": "0",
            "type": "t_uint64"
          },
          {
            "astId": 10198,
            "contract": "contracts/PrecogMarketV8.sol:PrecogMarketV8",
            "label": "deposited",
            "offset": 0,
            "slot": "1",
            "type": "t_uint256"
          },
          {
            "astId": 10200,
            "contract": "contracts/PrecogMarketV8.sol:PrecogMarketV8",
            "label": "withdrawn",
            "offset": 0,
            "slot": "2",
            "type": "t_uint256"
          },
          {
            "astId": 10202,
            "contract": "contracts/PrecogMarketV8.sol:PrecogMarketV8",
            "label": "redeemed",
            "offset": 0,
            "slot": "3",
            "type": "t_uint256"
          },
          {
            "astId": 10206,
            "contract": "contracts/PrecogMarketV8.sol:PrecogMarketV8",
            "label": "balances",
            "offset": 0,
            "slot": "4",
            "type": "t_mapping(t_uint256,t_uint256)"
          }
        ],
        "numberOfBytes": "160"
      },
      "t_uint16": {
        "encoding": "inplace",
        "label": "uint16",
        "numberOfBytes": "2"
      },
      "t_uint256": {
        "encoding": "inplace",
        "label": "uint256",
        "numberOfBytes": "32"
      },
      "t_uint32": {
        "encoding": "inplace",
        "label": "uint32",
        "numberOfBytes": "4"
      },
      "t_uint64": {
        "encoding": "inplace",
        "label": "uint64",
        "numberOfBytes": "8"
      },
      "t_uint8": {
        "encoding": "inplace",
        "label": "uint8",
        "numberOfBytes": "1"
      }
    }
  }
}