{
  "address": "0x87Ae8A07529363309a0eFcD2ce83c1a7f2B7ccB5",
  "abi": [
    {
      "inputs": [
        {
          "internalType": "address",
          "name": "initialAdmin",
          "type": "address"
        }
      ],
      "stateMutability": "nonpayable",
      "type": "constructor"
    },
    {
      "anonymous": false,
      "inputs": [
        {
          "indexed": true,
          "internalType": "bytes32",
          "name": "role",
          "type": "bytes32"
        },
        {
          "indexed": true,
          "internalType": "bytes32",
          "name": "previousAdminRole",
          "type": "bytes32"
        },
        {
          "indexed": true,
          "internalType": "bytes32",
          "name": "newAdminRole",
          "type": "bytes32"
        }
      ],
      "name": "RoleAdminChanged",
      "type": "event"
    },
    {
      "anonymous": false,
      "inputs": [
        {
          "indexed": true,
          "internalType": "bytes32",
          "name": "role",
          "type": "bytes32"
        },
        {
          "indexed": true,
          "internalType": "address",
          "name": "account",
          "type": "address"
        },
        {
          "indexed": true,
          "internalType": "address",
          "name": "sender",
          "type": "address"
        }
      ],
      "name": "RoleGranted",
      "type": "event"
    },
    {
      "anonymous": false,
      "inputs": [
        {
          "indexed": true,
          "internalType": "bytes32",
          "name": "role",
          "type": "bytes32"
        },
        {
          "indexed": true,
          "internalType": "address",
          "name": "account",
          "type": "address"
        },
        {
          "indexed": true,
          "internalType": "address",
          "name": "sender",
          "type": "address"
        }
      ],
      "name": "RoleRevoked",
      "type": "event"
    },
    {
      "inputs": [],
      "name": "ADMIN_ROLE",
      "outputs": [
        {
          "internalType": "bytes32",
          "name": "",
          "type": "bytes32"
        }
      ],
      "stateMutability": "view",
      "type": "function"
    },
    {
      "inputs": [],
      "name": "DEFAULT_ADMIN_ROLE",
      "outputs": [
        {
          "internalType": "bytes32",
          "name": "",
          "type": "bytes32"
        }
      ],
      "stateMutability": "view",
      "type": "function"
    },
    {
      "inputs": [],
      "name": "REPORTER_ROLE",
      "outputs": [
        {
          "internalType": "bytes32",
          "name": "",
          "type": "bytes32"
        }
      ],
      "stateMutability": "view",
      "type": "function"
    },
    {
      "inputs": [
        {
          "internalType": "address",
          "name": "account",
          "type": "address"
        }
      ],
      "name": "addAdmin",
      "outputs": [],
      "stateMutability": "nonpayable",
      "type": "function"
    },
    {
      "inputs": [
        {
          "internalType": "uint256",
          "name": "marketId",
          "type": "uint256"
        },
        {
          "internalType": "address",
          "name": "account",
          "type": "address"
        }
      ],
      "name": "addMarketReporter",
      "outputs": [],
      "stateMutability": "nonpayable",
      "type": "function"
    },
    {
      "inputs": [
        {
          "internalType": "address",
          "name": "account",
          "type": "address"
        }
      ],
      "name": "addReporter",
      "outputs": [],
      "stateMutability": "nonpayable",
      "type": "function"
    },
    {
      "inputs": [
        {
          "internalType": "uint256",
          "name": "marketId",
          "type": "uint256"
        },
        {
          "internalType": "bytes32",
          "name": "answer",
          "type": "bytes32"
        },
        {
          "internalType": "uint256",
          "name": "maxPrevious",
          "type": "uint256"
        },
        {
          "internalType": "uint256",
          "name": "bond",
          "type": "uint256"
        }
      ],
      "name": "answerOpenQuestion",
      "outputs": [],
      "stateMutability": "payable",
      "type": "function"
    },
    {
      "inputs": [],
      "name": "arbitrator",
      "outputs": [
        {
          "internalType": "address",
          "name": "",
          "type": "address"
        }
      ],
      "stateMutability": "view",
      "type": "function"
    },
    {
      "inputs": [
        {
          "internalType": "address",
          "name": "account",
          "type": "address"
        }
      ],
      "name": "getAccountPermissions",
      "outputs": [
        {
          "internalType": "bool",
          "name": "isAdmin",
          "type": "bool"
        },
        {
          "internalType": "bool",
          "name": "isGlobalReporter",
          "type": "bool"
        }
      ],
      "stateMutability": "view",
      "type": "function"
    },
    {
      "inputs": [
        {
          "internalType": "uint256",
          "name": "marketId",
          "type": "uint256"
        }
      ],
      "name": "getMarketState",
      "outputs": [
        {
          "internalType": "bool",
          "name": "isRegistered",
          "type": "bool"
        },
        {
          "internalType": "bool",
          "name": "isAnswered",
          "type": "bool"
        },
        {
          "internalType": "bool",
          "name": "isFinalized",
          "type": "bool"
        },
        {
          "internalType": "bool",
          "name": "isReported",
          "type": "bool"
        }
      ],
      "stateMutability": "view",
      "type": "function"
    },
    {
      "inputs": [],
      "name": "getRealityBalance",
      "outputs": [
        {
          "internalType": "uint256",
          "name": "",
          "type": "uint256"
        }
      ],
      "stateMutability": "view",
      "type": "function"
    },
    {
      "inputs": [
        {
          "internalType": "uint256",
          "name": "marketId",
          "type": "uint256"
        }
      ],
      "name": "getRealityQuestionInfo",
      "outputs": [
        {
          "internalType": "bytes32",
          "name": "questionId",
          "type": "bytes32"
        },
        {
          "internalType": "uint32",
          "name": "openingTS",
          "type": "uint32"
        },
        {
          "internalType": "uint32",
          "name": "timeout",
          "type": "uint32"
        },
        {
          "internalType": "uint256",
          "name": "bounty",
          "type": "uint256"
        },
        {
          "internalType": "uint256",
          "name": "bond",
          "type": "uint256"
        }
      ],
      "stateMutability": "view",
      "type": "function"
    },
    {
      "inputs": [
        {
          "internalType": "uint256",
          "name": "marketId",
          "type": "uint256"
        }
      ],
      "name": "getRealityResultInfo",
      "outputs": [
        {
          "internalType": "bytes32",
          "name": "questionId",
          "type": "bytes32"
        },
        {
          "internalType": "bytes32",
          "name": "answer",
          "type": "bytes32"
        },
        {
          "internalType": "uint32",
          "name": "finalizeTS",
          "type": "uint32"
        },
        {
          "internalType": "bytes32",
          "name": "lastHash",
          "type": "bytes32"
        },
        {
          "internalType": "bool",
          "name": "isFinalized",
          "type": "bool"
        },
        {
          "internalType": "bool",
          "name": "isPendingArbitration",
          "type": "bool"
        }
      ],
      "stateMutability": "view",
      "type": "function"
    },
    {
      "inputs": [
        {
          "internalType": "bytes32",
          "name": "role",
          "type": "bytes32"
        }
      ],
      "name": "getRoleAdmin",
      "outputs": [
        {
          "internalType": "bytes32",
          "name": "",
          "type": "bytes32"
        }
      ],
      "stateMutability": "view",
      "type": "function"
    },
    {
      "inputs": [
        {
          "internalType": "bytes32",
          "name": "role",
          "type": "bytes32"
        },
        {
          "internalType": "uint256",
          "name": "index",
          "type": "uint256"
        }
      ],
      "name": "getRoleMember",
      "outputs": [
        {
          "internalType": "address",
          "name": "",
          "type": "address"
        }
      ],
      "stateMutability": "view",
      "type": "function"
    },
    {
      "inputs": [
        {
          "internalType": "bytes32",
          "name": "role",
          "type": "bytes32"
        }
      ],
      "name": "getRoleMemberCount",
      "outputs": [
        {
          "internalType": "uint256",
          "name": "",
          "type": "uint256"
        }
      ],
      "stateMutability": "view",
      "type": "function"
    },
    {
      "inputs": [
        {
          "internalType": "bytes32",
          "name": "role",
          "type": "bytes32"
        },
        {
          "internalType": "address",
          "name": "account",
          "type": "address"
        }
      ],
      "name": "grantRole",
      "outputs": [],
      "stateMutability": "nonpayable",
      "type": "function"
    },
    {
      "inputs": [
        {
          "internalType": "bytes32",
          "name": "role",
          "type": "bytes32"
        },
        {
          "internalType": "address",
          "name": "account",
          "type": "address"
        }
      ],
      "name": "hasRole",
      "outputs": [
        {
          "internalType": "bool",
          "name": "",
          "type": "bool"
        }
      ],
      "stateMutability": "view",
      "type": "function"
    },
    {
      "inputs": [
        {
          "internalType": "uint256",
          "name": "marketId",
          "type": "uint256"
        }
      ],
      "name": "isMarketRegistered",
      "outputs": [
        {
          "internalType": "bool",
          "name": "",
          "type": "bool"
        }
      ],
      "stateMutability": "view",
      "type": "function"
    },
    {
      "inputs": [
        {
          "internalType": "uint256",
          "name": "marketId",
          "type": "uint256"
        },
        {
          "internalType": "address",
          "name": "account",
          "type": "address"
        }
      ],
      "name": "isMarketReporter",
      "outputs": [
        {
          "internalType": "bool",
          "name": "",
          "type": "bool"
        }
      ],
      "stateMutability": "view",
      "type": "function"
    },
    {
      "inputs": [
        {
          "internalType": "uint256",
          "name": "marketId",
          "type": "uint256"
        }
      ],
      "name": "marketEnableDatesUpdate",
      "outputs": [],
      "stateMutability": "nonpayable",
      "type": "function"
    },
    {
      "inputs": [
        {
          "internalType": "uint256",
          "name": "marketId",
          "type": "uint256"
        },
        {
          "internalType": "address[]",
          "name": "accounts",
          "type": "address[]"
        }
      ],
      "name": "marketRedeemBatch",
      "outputs": [
        {
          "internalType": "uint256",
          "name": "",
          "type": "uint256"
        }
      ],
      "stateMutability": "nonpayable",
      "type": "function"
    },
    {
      "inputs": [
        {
          "internalType": "uint256",
          "name": "",
          "type": "uint256"
        },
        {
          "internalType": "address",
          "name": "",
          "type": "address"
        }
      ],
      "name": "marketReporters",
      "outputs": [
        {
          "internalType": "bool",
          "name": "",
          "type": "bool"
        }
      ],
      "stateMutability": "view",
      "type": "function"
    },
    {
      "inputs": [
        {
          "internalType": "uint256",
          "name": "",
          "type": "uint256"
        }
      ],
      "name": "markets",
      "outputs": [
        {
          "internalType": "address",
          "name": "market",
          "type": "address"
        },
        {
          "internalType": "bytes32",
          "name": "questionId",
          "type": "bytes32"
        },
        {
          "internalType": "string",
          "name": "outcomes",
          "type": "string"
        },
        {
          "internalType": "bool",
          "name": "answered",
          "type": "bool"
        },
        {
          "internalType": "uint256",
          "name": "resultIndex",
          "type": "uint256"
        },
        {
          "internalType": "string",
          "name": "resultLabel",
          "type": "string"
        }
      ],
      "stateMutability": "view",
      "type": "function"
    },
    {
      "inputs": [],
      "name": "maxAnswerBond",
      "outputs": [
        {
          "internalType": "uint256",
          "name": "",
          "type": "uint256"
        }
      ],
      "stateMutability": "view",
      "type": "function"
    },
    {
      "inputs": [
        {
          "internalType": "uint256",
          "name": "marketId",
          "type": "uint256"
        },
        {
          "internalType": "uint256",
          "name": "bounty",
          "type": "uint256"
        },
        {
          "internalType": "uint32",
          "name": "templateId",
          "type": "uint32"
        },
        {
          "internalType": "string",
          "name": "question",
          "type": "string"
        },
        {
          "internalType": "string[]",
          "name": "outcomes",
          "type": "string[]"
        },
        {
          "internalType": "string",
          "name": "category",
          "type": "string"
        },
        {
          "internalType": "uint32",
          "name": "timeout",
          "type": "uint32"
        },
        {
          "internalType": "uint32",
          "name": "startTime",
          "type": "uint32"
        }
      ],
      "name": "openQuestion",
      "outputs": [
        {
          "internalType": "bytes32",
          "name": "questionId",
          "type": "bytes32"
        }
      ],
      "stateMutability": "payable",
      "type": "function"
    },
    {
      "inputs": [],
      "name": "precogMaster",
      "outputs": [
        {
          "internalType": "address",
          "name": "",
          "type": "address"
        }
      ],
      "stateMutability": "view",
      "type": "function"
    },
    {
      "inputs": [],
      "name": "reality",
      "outputs": [
        {
          "internalType": "address",
          "name": "",
          "type": "address"
        }
      ],
      "stateMutability": "view",
      "type": "function"
    },
    {
      "inputs": [
        {
          "internalType": "bytes32",
          "name": "questionId",
          "type": "bytes32"
        },
        {
          "internalType": "bytes32[]",
          "name": "historyHashes",
          "type": "bytes32[]"
        },
        {
          "internalType": "address[]",
          "name": "answerers",
          "type": "address[]"
        },
        {
          "internalType": "uint256[]",
          "name": "bonds",
          "type": "uint256[]"
        },
        {
          "internalType": "bytes32[]",
          "name": "answers",
          "type": "bytes32[]"
        }
      ],
      "name": "realityClaimWinnings",
      "outputs": [],
      "stateMutability": "nonpayable",
      "type": "function"
    },
    {
      "inputs": [
        {
          "internalType": "uint256",
          "name": "bounty",
          "type": "uint256"
        },
        {
          "internalType": "uint32",
          "name": "templateId",
          "type": "uint32"
        },
        {
          "internalType": "string",
          "name": "question",
          "type": "string"
        },
        {
          "internalType": "string[]",
          "name": "outcomes",
          "type": "string[]"
        },
        {
          "internalType": "string",
          "name": "category",
          "type": "string"
        },
        {
          "internalType": "uint32",
          "name": "timeout",
          "type": "uint32"
        },
        {
          "internalType": "uint32",
          "name": "startTime",
          "type": "uint32"
        },
        {
          "internalType": "uint256",
          "name": "nonce",
          "type": "uint256"
        },
        {
          "internalType": "uint256",
          "name": "minBond",
          "type": "uint256"
        }
      ],
      "name": "realityOpenQuestion",
      "outputs": [
        {
          "internalType": "bytes32",
          "name": "questionId",
          "type": "bytes32"
        }
      ],
      "stateMutability": "payable",
      "type": "function"
    },
    {
      "inputs": [
        {
          "internalType": "uint256",
          "name": "bond",
          "type": "uint256"
        },
        {
          "internalType": "bytes32",
          "name": "questionId",
          "type": "bytes32"
        },
        {
          "internalType": "bytes32",
          "name": "answer",
          "type": "bytes32"
        },
        {
          "internalType": "uint256",
          "name": "maxPrevious",
          "type": "uint256"
        },
        {
          "internalType": "address",
          "name": "answerer",
          "type": "address"
        }
      ],
      "name": "realitySubmitAnswerFor",
      "outputs": [],
      "stateMutability": "payable",
      "type": "function"
    },
    {
      "inputs": [],
      "name": "realityWithdraw",
      "outputs": [],
      "stateMutability": "nonpayable",
      "type": "function"
    },
    {
      "inputs": [
        {
          "internalType": "uint256",
          "name": "id",
          "type": "uint256"
        },
        {
          "internalType": "address",
          "name": "market",
          "type": "address"
        },
        {
          "internalType": "address[]",
          "name": "initialReporters",
          "type": "address[]"
        }
      ],
      "name": "registerMarket",
      "outputs": [],
      "stateMutability": "nonpayable",
      "type": "function"
    },
    {
      "inputs": [
        {
          "internalType": "address",
          "name": "account",
          "type": "address"
        }
      ],
      "name": "removeAdmin",
      "outputs": [],
      "stateMutability": "nonpayable",
      "type": "function"
    },
    {
      "inputs": [
        {
          "internalType": "uint256",
          "name": "marketId",
          "type": "uint256"
        },
        {
          "internalType": "address",
          "name": "account",
          "type": "address"
        }
      ],
      "name": "removeMarketReporter",
      "outputs": [],
      "stateMutability": "nonpayable",
      "type": "function"
    },
    {
      "inputs": [
        {
          "internalType": "address",
          "name": "account",
          "type": "address"
        }
      ],
      "name": "removeReporter",
      "outputs": [],
      "stateMutability": "nonpayable",
      "type": "function"
    },
    {
      "inputs": [
        {
          "internalType": "bytes32",
          "name": "role",
          "type": "bytes32"
        },
        {
          "internalType": "address",
          "name": "account",
          "type": "address"
        }
      ],
      "name": "renounceRole",
      "outputs": [],
      "stateMutability": "nonpayable",
      "type": "function"
    },
    {
      "inputs": [
        {
          "internalType": "uint256",
          "name": "marketId",
          "type": "uint256"
        }
      ],
      "name": "reportResult",
      "outputs": [],
      "stateMutability": "nonpayable",
      "type": "function"
    },
    {
      "inputs": [
        {
          "internalType": "bytes32",
          "name": "role",
          "type": "bytes32"
        },
        {
          "internalType": "address",
          "name": "account",
          "type": "address"
        }
      ],
      "name": "revokeRole",
      "outputs": [],
      "stateMutability": "nonpayable",
      "type": "function"
    },
    {
      "inputs": [
        {
          "internalType": "address",
          "name": "arbitratorProxy",
          "type": "address"
        }
      ],
      "name": "setArbitrator",
      "outputs": [],
      "stateMutability": "nonpayable",
      "type": "function"
    },
    {
      "inputs": [
        {
          "internalType": "uint256",
          "name": "maxBond",
          "type": "uint256"
        }
      ],
      "name": "setMaxAnswerBond",
      "outputs": [],
      "stateMutability": "nonpayable",
      "type": "function"
    },
    {
      "inputs": [
        {
          "internalType": "address",
          "name": "master",
          "type": "address"
        }
      ],
      "name": "setPrecogMaster",
      "outputs": [],
      "stateMutability": "nonpayable",
      "type": "function"
    },
    {
      "inputs": [
        {
          "internalType": "address",
          "name": "realityProxy",
          "type": "address"
        }
      ],
      "name": "setReality",
      "outputs": [],
      "stateMutability": "nonpayable",
      "type": "function"
    },
    {
      "inputs": [
        {
          "internalType": "uint256",
          "name": "marketId",
          "type": "uint256"
        },
        {
          "internalType": "uint32",
          "name": "templateId",
          "type": "uint32"
        },
        {
          "internalType": "string",
          "name": "question",
          "type": "string"
        },
        {
          "internalType": "string[]",
          "name": "outcomes",
          "type": "string[]"
        },
        {
          "internalType": "string",
          "name": "category",
          "type": "string"
        },
        {
          "internalType": "uint32",
          "name": "timeout",
          "type": "uint32"
        },
        {
          "internalType": "uint32",
          "name": "startTime",
          "type": "uint32"
        },
        {
          "internalType": "bytes32",
          "name": "answer",
          "type": "bytes32"
        },
        {
          "internalType": "uint256",
          "name": "bond",
          "type": "uint256"
        }
      ],
      "name": "submitResult",
      "outputs": [
        {
          "internalType": "bytes32",
          "name": "questionId",
          "type": "bytes32"
        }
      ],
      "stateMutability": "payable",
      "type": "function"
    },
    {
      "inputs": [
        {
          "internalType": "uint256",
          "name": "id",
          "type": "uint256"
        },
        {
          "internalType": "address",
          "name": "market",
          "type": "address"
        }
      ],
      "name": "unregisterMarket",
      "outputs": [],
      "stateMutability": "nonpayable",
      "type": "function"
    },
    {
      "inputs": [
        {
          "internalType": "address",
          "name": "_token",
          "type": "address"
        }
      ],
      "name": "withdraw",
      "outputs": [],
      "stateMutability": "nonpayable",
      "type": "function"
    },
    {
      "stateMutability": "payable",
      "type": "receive"
    }
  ],
  "transactionHash": "0x8bba292365fe1b0ec8f6f2d13d142af6d2b4105b564f37a55a5bb82b6edc157f",
  "args": [
    "0x9475A4C1BF5Fc80aE079303f14B523da19619c16"
  ],
  "numDeployments": 1,
  "solcInputHash": "9041948f0553f1d504e469498b519ffc",
  "bytecode": "0x60806040523480156200001157600080fd5b50604051620047d4380380620047d4833981016040819052620000349162000204565b620000416000826200009e565b6200007c7f3204c940063673962b481a0395619b3dbbd137589c419e993978c1c71bcf68ec600080516020620047b4833981519152620000ae565b62000097600080516020620047b4833981519152826200009e565b5062000234565b620000aa828262000100565b5050565b600082815260208190526040808220600201549051839285917fbd79b86ffe0ab8e8776151514217cd7cacd52c909f66475c3af44e129f0b00ff9190a460009182526020829052604090912060020155565b6000828152602081815260409091206200012591839062002aef62000179821b17901c565b15620000aa576200013562000199565b6001600160a01b0316816001600160a01b0316837f2f8788117e7eff1d82e926ec794901d17c78024a50270940304540a733656f0d60405160405180910390a45050565b600062000190836001600160a01b0384166200019d565b90505b92915050565b3390565b6000620001ab8383620001ec565b620001e35750815460018181018455600084815260208082209093018490558454848252828601909352604090209190915562000193565b50600062000193565b60009081526001919091016020526040902054151590565b60006020828403121562000216578081fd5b81516001600160a01b03811681146200022d578182fd5b9392505050565b61457080620002446000396000f3fe6080604052600436106103015760003560e01c806373e8f2f71161018f578063b0eefabe116100e1578063c7c53c1a1161008a578063d8c1ce0611610064578063d8c1ce061461085b578063dd8755f21461087b578063de51fef31461089b57610308565b8063c7c53c1a146107fb578063ca15c8731461081b578063d547741f1461083b57610308565b8063be3ab83c116100bb578063be3ab83c14610798578063c0d51cf0146107ad578063c62e72d3146107cd57610308565b8063b0eefabe14610726578063b1283e7714610746578063bc22bb581461077857610308565b80639010d07c11610143578063a217fddf1161011d578063a217fddf146106e7578063a2dd516a146106fc578063ac1ea4281461071157610308565b80639010d07c1461069457806391d14854146106b45780639aa06123146106d457610308565b80637bd18446116101745780637bd18446146106135780637c14ba8a1461063357806388b1f1c31461066457610308565b806373e8f2f7146105de57806375b238fc146105fe57610308565b8063381d73eb1161025357806353b95916116101fc5780636bbd1f2a116101d65780636bbd1f2a146105895780636cc6cde1146105a957806370480275146105be57610308565b806353b959161461053657806353fe4380146105495780635de5c2121461056957610308565b80633f60d7991161022d5780633f60d799146104e157806346d881a7146104f657806351cff8d91461051657610308565b8063381d73eb1461048c5780633a435569146104ac5780633ca15ff9146104c157610308565b80631df36922116102b55780632a806b071161028f5780632a806b07146104395780632f2ff15d1461044c57806336568abe1461046c57610308565b80631df36922146103c75780632033fc8e146103f9578063248a9ca31461041957610308565b80630e706e3f116102e65780630e706e3f1461035a5780631785f53c146103875780631acf43f2146103a757610308565b80630305ce0c1461030d5780630bc4fd781461032f57610308565b3661030857005b600080fd5b34801561031957600080fd5b5061032d610328366004613688565b6108ae565b005b34801561033b57600080fd5b50610344610c52565b6040516103519190613d33565b60405180910390f35b34801561036657600080fd5b5061037a6103753660046137d3565b610c61565b6040516103519190613db0565b34801561039357600080fd5b5061032d6103a2366004613630565b610cc0565b3480156103b357600080fd5b5061032d6103c23660046137d3565b610d33565b3480156103d357600080fd5b506103e76103e2366004613688565b610de8565b60405161035196959493929190613e98565b61040c610407366004613906565b611123565b6040516103519190613dee565b34801561042557600080fd5b5061040c610434366004613688565b6112c3565b61040c6104473660046139e5565b6112db565b34801561045857600080fd5b5061032d6104673660046136b8565b611338565b34801561047857600080fd5b5061032d6104873660046136b8565b61139f565b34801561049857600080fd5b5061032d6104a7366004613688565b611400565b3480156104b857600080fd5b5061040c6114d1565b3480156104cd57600080fd5b5061032d6104dc366004613630565b611570565b3480156104ed57600080fd5b5061040c6115f0565b34801561050257600080fd5b5061037a610511366004613688565b611614565b34801561052257600080fd5b5061032d610531366004613630565b611631565b61032d610544366004613889565b611748565b34801561055557600080fd5b5061032d6105643660046137e5565b611818565b34801561057557600080fd5b5061032d610584366004613630565b611b53565b34801561059557600080fd5b5061032d6105a43660046137d3565b611bc3565b3480156105b557600080fd5b50610344611cae565b3480156105ca57600080fd5b5061032d6105d9366004613630565b611cbd565b3480156105ea57600080fd5b5061032d6105f9366004613630565b611d2d565b34801561060a57600080fd5b5061040c611dad565b34801561061f57600080fd5b5061032d61062e3660046136e7565b611dd1565b34801561063f57600080fd5b5061065361064e366004613688565b611ead565b604051610351959493929190613eca565b34801561067057600080fd5b5061068461067f366004613688565b61214f565b6040516103519493929190613dcd565b3480156106a057600080fd5b506103446106af3660046137b2565b612230565b3480156106c057600080fd5b5061037a6106cf3660046136b8565b612248565b61040c6106e23660046139e5565b612260565b3480156106f357600080fd5b5061040c612381565b34801561070857600080fd5b5061032d612386565b34801561071d57600080fd5b5061040c612430565b34801561073257600080fd5b5061032d610741366004613630565b612436565b34801561075257600080fd5b50610766610761366004613688565b6124b6565b60405161035196959493929190613d47565b34801561078457600080fd5b5061037a6107933660046137d3565b61260c565b3480156107a457600080fd5b5061034461262c565b3480156107b957600080fd5b5061032d6107c8366004613688565b61263b565b3480156107d957600080fd5b506107ed6107e8366004613630565b612686565b604051610351929190613dbb565b34801561080757600080fd5b5061032d6108163660046137d3565b6126e6565b34801561082757600080fd5b5061040c610836366004613688565b61279f565b34801561084757600080fd5b5061032d6108563660046136b8565b6127b6565b34801561086757600080fd5b5061040c61087636600461383f565b61280f565b34801561088757600080fd5b5061032d610896366004613630565b61290b565b61032d6108a93660046138d5565b61297b565b6108d87f3204c940063673962b481a0395619b3dbbd137589c419e993978c1c71bcf68ec33612248565b6108fd5760405162461bcd60e51b81526004016108f4906141c1565b60405180910390fd5b6000818152600560205260409020600101548061092c5760405162461bcd60e51b81526004016108f4906140e5565b6002546040517f7f8d429e0000000000000000000000000000000000000000000000000000000081526001600160a01b0390911690637f8d429e90610975908490600401613dee565b60206040518083038186803b15801561098d57600080fd5b505afa1580156109a1573d6000803e3d6000fd5b505050506040513d601f19601f820116820180604052508101906109c59190613668565b6109e15760405162461bcd60e51b81526004016108f490613f2d565b60008281526005602052604090206004015415610a105760405162461bcd60e51b81526004016108f490613f64565b6002546040517f8d552d460000000000000000000000000000000000000000000000000000000081526000916001600160a01b031690638d552d4690610a5a908590600401613dee565b60206040518083038186803b158015610a7257600080fd5b505afa158015610a86573d6000803e3d6000fd5b505050506040513d601f19601f82011682018060405250810190610aaa91906136a0565b60008481526005602090815260408083206002908101805483516001821615610100026000190190911692909204601f81018590048502830185019093528282529495508594610b539391929091830182828015610b495780601f10610b1e57610100808354040283529160200191610b49565b820191906000526020600020905b815481529060010190602001808311610b2c57829003601f168201915b5050505050612b04565b905080518210610b755760405162461bcd60e51b81526004016108f490614077565b6000818381518110610b8357fe5b602090810291909101810151600088815260059092526040918290205491517fad094f3d00000000000000000000000000000000000000000000000000000000815290925060018501916001600160a01b03169063ad094f3d90610bed908a90859060040161422f565b600060405180830381600087803b158015610c0757600080fd5b505af1158015610c1b573d6000803e3d6000fd5b5050506000888152600560208181526040909220600481018590558551610c4894509101918501906134bb565b5050505050505050565b6001546001600160a01b031681565b60008281526006602090815260408083206001600160a01b038516845290915281205460ff1680610cb75750610cb77f3204c940063673962b481a0395619b3dbbd137589c419e993978c1c71bcf68ec83612248565b90505b92915050565b610cea7fa49807205ce4d355092ef5a8a18f56e8913cf4a201fbe287825b095693c2177533612248565b610d065760405162461bcd60e51b81526004016108f49061411c565b610d307fa49807205ce4d355092ef5a8a18f56e8913cf4a201fbe287825b095693c21775826127b6565b50565b610d5d7fa49807205ce4d355092ef5a8a18f56e8913cf4a201fbe287825b095693c2177533612248565b610d795760405162461bcd60e51b81526004016108f49061411c565b60008281526006602090815260408083206001600160a01b038516845290915290205460ff16610dbb5760405162461bcd60e51b81526004016108f49061418a565b60009182526006602090815260408084206001600160a01b0390931684529190529020805460ff19169055565b600081815260056020526040812060010154908080808085610e1c5760405162461bcd60e51b81526004016108f4906140e5565b6002546040517f8d552d460000000000000000000000000000000000000000000000000000000081526001600160a01b03909116908190638d552d4690610e67908a90600401613dee565b60206040518083038186803b158015610e7f57600080fd5b505afa158015610e93573d6000803e3d6000fd5b505050506040513d601f19601f82011682018060405250810190610eb791906136a0565b6040517facae8f4e0000000000000000000000000000000000000000000000000000000081529096506001600160a01b0382169063acae8f4e90610eff908a90600401613dee565b60206040518083038186803b158015610f1757600080fd5b505afa158015610f2b573d6000803e3d6000fd5b505050506040513d601f19601f82011682018060405250810190610f4f9190613adb565b6040517f82ffa9f70000000000000000000000000000000000000000000000000000000081529095506001600160a01b038216906382ffa9f790610f97908a90600401613dee565b60206040518083038186803b158015610faf57600080fd5b505afa158015610fc3573d6000803e3d6000fd5b505050506040513d601f19601f82011682018060405250810190610fe791906136a0565b6040517f7f8d429e0000000000000000000000000000000000000000000000000000000081529094506001600160a01b03821690637f8d429e9061102f908a90600401613dee565b60206040518083038186803b15801561104757600080fd5b505afa15801561105b573d6000803e3d6000fd5b505050506040513d601f19601f8201168201806040525081019061107f9190613668565b6040517f924532fb0000000000000000000000000000000000000000000000000000000081529093506001600160a01b0382169063924532fb906110c7908a90600401613dee565b60206040518083038186803b1580156110df57600080fd5b505afa1580156110f3573d6000803e3d6000fd5b505050506040513d601f19601f820116820180604052508101906111179190613668565b91505091939550919395565b60008b6111308133610c61565b61114c5760405162461bcd60e51b81526004016108f4906140ae565b6111558d611614565b6111715760405162461bcd60e51b81526004016108f490614153565b60008d815260056020526040902060010154156111a05760405162461bcd60e51b81526004016108f490613fd2565b6002546001600160a01b031663762c38fd8d8d6111c18e8e8e8e8e8e612cda565b6003546040517fffffffff0000000000000000000000000000000000000000000000000000000060e087901b16815261120f9392916001600160a01b0316908b908b9060009060040161423d565b6020604051808303818588803b15801561122857600080fd5b505af115801561123c573d6000803e3d6000fd5b50505050506040513d601f19601f8201168201806040525081019061126191906136a0565b60008e81526005602052604090206001018190559150611289611284888a614363565b612dc1565b600560008f815260200190815260200160002060020190805190602001906112b29291906134bb565b50509b9a5050505050505050505050565b6000818152602081905260409020600201545b919050565b60008c6112e88133610c61565b6113045760405162461bcd60e51b81526004016108f4906140ae565b6113188e60008f8f8f8f8f8f8f8f8f611123565b91506113278e8560008661297b565b509c9b505050505050505050505050565b600082815260208190526040902060020154611356906106cf612e52565b6113915760405162461bcd60e51b815260040180806020018281038252602f815260200180614483602f913960400191505060405180910390fd5b61139b8282612e56565b5050565b6113a7612e52565b6001600160a01b0316816001600160a01b0316146113f65760405162461bcd60e51b815260040180806020018281038252602f81526020018061450c602f913960400191505060405180910390fd5b61139b8282612ebf565b61142a7f3204c940063673962b481a0395619b3dbbd137589c419e993978c1c71bcf68ec33612248565b6114465760405162461bcd60e51b81526004016108f4906141c1565b600081815260056020526040908190205490517fd27b30860000000000000000000000000000000000000000000000000000000081526001600160a01b039091169063d27b30869061149c908490600401613dee565b600060405180830381600087803b1580156114b657600080fd5b505af11580156114ca573d6000803e3d6000fd5b5050505050565b6002546040517f70a082310000000000000000000000000000000000000000000000000000000081526000916001600160a01b0316906370a082319061151b903090600401613d33565b60206040518083038186803b15801561153357600080fd5b505afa158015611547573d6000803e3d6000fd5b505050506040513d601f19601f8201168201806040525081019061156b91906136a0565b905090565b61159a7fa49807205ce4d355092ef5a8a18f56e8913cf4a201fbe287825b095693c2177533612248565b6115b65760405162461bcd60e51b81526004016108f49061411c565b600180547fffffffffffffffffffffffff0000000000000000000000000000000000000000166001600160a01b0392909216919091179055565b7f3204c940063673962b481a0395619b3dbbd137589c419e993978c1c71bcf68ec81565b6000908152600560205260409020546001600160a01b0316151590565b61165b7fa49807205ce4d355092ef5a8a18f56e8913cf4a201fbe287825b095693c2177533612248565b6116775760405162461bcd60e51b81526004016108f49061411c565b6001600160a01b0381166116b75760405133904780156108fc02916000818181858888f193505050501580156116b1573d6000803e3d6000fd5b50610d30565b610d3033826001600160a01b03166370a08231306040518263ffffffff1660e01b81526004016116e79190613d33565b60206040518083038186803b1580156116ff57600080fd5b505afa158015611713573d6000803e3d6000fd5b505050506040513d601f19601f8201168201806040525081019061173791906136a0565b6001600160a01b0384169190612f28565b6117727f3204c940063673962b481a0395619b3dbbd137589c419e993978c1c71bcf68ec33612248565b61178e5760405162461bcd60e51b81526004016108f4906141c1565b6002546040517f111ec1380000000000000000000000000000000000000000000000000000000081526001600160a01b039091169063111ec1389087906117df908890889088908890600401613e74565b6000604051808303818588803b1580156117f857600080fd5b505af115801561180c573d6000803e3d6000fd5b50505050505050505050565b6118427f3204c940063673962b481a0395619b3dbbd137589c419e993978c1c71bcf68ec33612248565b61185e5760405162461bcd60e51b81526004016108f4906141c1565b600154604080517f8da5cb5b00000000000000000000000000000000000000000000000000000000815290516001600160a01b0392831692861691638da5cb5b916004808301926020929190829003018186803b1580156118be57600080fd5b505afa1580156118d2573d6000803e3d6000fd5b505050506040513d601f19601f820116820180604052508101906118f6919061364c565b6001600160a01b03161461191c5760405162461bcd60e51b81526004016108f490614040565b306001600160a01b0316836001600160a01b0316637dc0d1d06040518163ffffffff1660e01b815260040160206040518083038186803b15801561195f57600080fd5b505afa158015611973573d6000803e3d6000fd5b505050506040513d601f19601f82011682018060405250810190611997919061364c565b6001600160a01b0316146119bd5760405162461bcd60e51b81526004016108f490614009565b6000848152600560205260409020546001600160a01b0316156119f25760405162461bcd60e51b81526004016108f4906141f8565b6040805160c0810182526001600160a01b038581168252600060208084018281528551808301875283815285870190815260608601849052608086018490528651808401885284815260a08701528a84526005835295909220845181547fffffffffffffffffffffffff0000000000000000000000000000000000000000169416939093178355905160018301559251805192939192611a9892600285019201906134bb565b50606082015160038201805460ff19169115159190911790556080820151600482015560a08201518051611ad69160058401916020909101906134bb565b505081159050611b4d5760005b818110156114ca576000858152600660205260408120600191858585818110611b0857fe5b9050602002016020810190611b1d9190613630565b6001600160a01b031681526020810191909152604001600020805460ff1916911515919091179055600101611ae3565b50505050565b611b7d7fa49807205ce4d355092ef5a8a18f56e8913cf4a201fbe287825b095693c2177533612248565b611b995760405162461bcd60e51b81526004016108f49061411c565b610d307f3204c940063673962b481a0395619b3dbbd137589c419e993978c1c71bcf68ec826127b6565b611bed7fa49807205ce4d355092ef5a8a18f56e8913cf4a201fbe287825b095693c2177533612248565b611c095760405162461bcd60e51b81526004016108f49061411c565b6000828152600560205260409020546001600160a01b03828116911614611c425760405162461bcd60e51b81526004016108f490614009565b600082815260056020526040812080547fffffffffffffffffffffffff00000000000000000000000000000000000000001681556001810182905590611c8b6002830182613547565b60038201805460ff19169055600060048301819055611b4d906005840190613547565b6003546001600160a01b031681565b611ce77fa49807205ce4d355092ef5a8a18f56e8913cf4a201fbe287825b095693c2177533612248565b611d035760405162461bcd60e51b81526004016108f49061411c565b610d307fa49807205ce4d355092ef5a8a18f56e8913cf4a201fbe287825b095693c2177582611338565b611d577fa49807205ce4d355092ef5a8a18f56e8913cf4a201fbe287825b095693c2177533612248565b611d735760405162461bcd60e51b81526004016108f49061411c565b600280547fffffffffffffffffffffffff0000000000000000000000000000000000000000166001600160a01b0392909216919091179055565b7fa49807205ce4d355092ef5a8a18f56e8913cf4a201fbe287825b095693c2177581565b611dfb7f3204c940063673962b481a0395619b3dbbd137589c419e993978c1c71bcf68ec33612248565b611e175760405162461bcd60e51b81526004016108f4906141c1565b6002546040517f1101a0fd0000000000000000000000000000000000000000000000000000000081526001600160a01b0390911690631101a0fd90611e70908c908c908c908c908c908c908c908c908c90600401613df7565b600060405180830381600087803b158015611e8a57600080fd5b505af1158015611e9e573d6000803e3d6000fd5b50505050505050505050505050565b6000818152600560205260408120600101549080808084611ee05760405162461bcd60e51b81526004016108f4906140e5565b6002546040517f9e63fa6a0000000000000000000000000000000000000000000000000000000081526001600160a01b03909116908190639e63fa6a90611f2b908990600401613dee565b60206040518083038186803b158015611f4357600080fd5b505afa158015611f57573d6000803e3d6000fd5b505050506040513d601f19601f82011682018060405250810190611f7b9190613adb565b6040517f9f1025c60000000000000000000000000000000000000000000000000000000081529095506001600160a01b03821690639f1025c690611fc3908990600401613dee565b60206040518083038186803b158015611fdb57600080fd5b505afa158015611fef573d6000803e3d6000fd5b505050506040513d601f19601f820116820180604052508101906120139190613adb565b6040517f2417395c0000000000000000000000000000000000000000000000000000000081529094506001600160a01b03821690632417395c9061205b908990600401613dee565b60206040518083038186803b15801561207357600080fd5b505afa158015612087573d6000803e3d6000fd5b505050506040513d601f19601f820116820180604052508101906120ab91906136a0565b6040517f26d6c97b0000000000000000000000000000000000000000000000000000000081529093506001600160a01b038216906326d6c97b906120f3908990600401613dee565b60206040518083038186803b15801561210b57600080fd5b505afa15801561211f573d6000803e3d6000fd5b505050506040513d601f19601f8201168201806040525081019061214391906136a0565b91505091939590929450565b6000818152600560205260408082208054600382015460025460019093015493517f7f8d429e0000000000000000000000000000000000000000000000000000000081526001600160a01b0392831615159560ff90921694919384931691637f8d429e916121c09190600401613dee565b60206040518083038186803b1580156121d857600080fd5b505afa1580156121ec573d6000803e3d6000fd5b505050506040513d601f19601f820116820180604052508101906122109190613668565b600086815260056020526040902060040154909250151590509193509193565b6000828152602081905260408120610cb79083612fad565b6000828152602081905260408120610cb79083612fb9565b600061228c7f3204c940063673962b481a0395619b3dbbd137589c419e993978c1c71bcf68ec33612248565b6122a85760405162461bcd60e51b81526004016108f4906141c1565b60006122b88c8c8c8c8c8c612cda565b9050600260009054906101000a90046001600160a01b03166001600160a01b031663484b93c48f8f84600360009054906101000a90046001600160a01b03168b8b8b8b6040518963ffffffff1660e01b815260040161231d979695949392919061428a565b6020604051808303818588803b15801561233657600080fd5b505af115801561234a573d6000803e3d6000fd5b50505050506040513d601f19601f8201168201806040525081019061236f91906136a0565b9e9d5050505050505050505050505050565b600081565b6123b07f3204c940063673962b481a0395619b3dbbd137589c419e993978c1c71bcf68ec33612248565b6123cc5760405162461bcd60e51b81526004016108f4906141c1565b600260009054906101000a90046001600160a01b03166001600160a01b0316633ccfd60b6040518163ffffffff1660e01b8152600401600060405180830381600087803b15801561241c57600080fd5b505af1158015611b4d573d6000803e3d6000fd5b60045481565b6124607fa49807205ce4d355092ef5a8a18f56e8913cf4a201fbe287825b095693c2177533612248565b61247c5760405162461bcd60e51b81526004016108f49061411c565b600380547fffffffffffffffffffffffff0000000000000000000000000000000000000000166001600160a01b0392909216919091179055565b60056020908152600091825260409182902080546001808301546002808501805488516101009582161595909502600019011691909104601f81018790048702840187019097528683526001600160a01b039093169590949192918301828280156125625780601f1061253757610100808354040283529160200191612562565b820191906000526020600020905b81548152906001019060200180831161254557829003601f168201915b505050506003830154600484015460058501805460408051602060026101006001861615026000190190941693909304601f8101849004840282018401909252818152969760ff90951696939550908301828280156126025780601f106125d757610100808354040283529160200191612602565b820191906000526020600020905b8154815290600101906020018083116125e557829003601f168201915b5050505050905086565b600660209081526000928352604080842090915290825290205460ff1681565b6002546001600160a01b031681565b6126657fa49807205ce4d355092ef5a8a18f56e8913cf4a201fbe287825b095693c2177533612248565b6126815760405162461bcd60e51b81526004016108f49061411c565b600455565b6000806126b37fa49807205ce4d355092ef5a8a18f56e8913cf4a201fbe287825b095693c2177584612248565b91506126df7f3204c940063673962b481a0395619b3dbbd137589c419e993978c1c71bcf68ec84612248565b9050915091565b6127107fa49807205ce4d355092ef5a8a18f56e8913cf4a201fbe287825b095693c2177533612248565b61272c5760405162461bcd60e51b81526004016108f49061411c565b60008281526006602090815260408083206001600160a01b038516845290915290205460ff161561276f5760405162461bcd60e51b81526004016108f49061418a565b60009182526006602090815260408084206001600160a01b0390931684529190529020805460ff19166001179055565b6000818152602081905260408120610cba90612fce565b6000828152602081905260409020600201546127d4906106cf612e52565b6113f65760405162461bcd60e51b81526004018080602001828103825260308152602001806144b26030913960400191505060405180910390fd5b600061283b7f3204c940063673962b481a0395619b3dbbd137589c419e993978c1c71bcf68ec33612248565b6128575760405162461bcd60e51b81526004016108f4906141c1565b600084815260056020526040908190205490517fbc0e610a0000000000000000000000000000000000000000000000000000000081526001600160a01b039091169063bc0e610a906128af9086908690600401613d9c565b602060405180830381600087803b1580156128c957600080fd5b505af11580156128dd573d6000803e3d6000fd5b505050506040513d601f19601f8201168201806040525081019061290191906136a0565b90505b9392505050565b6129357fa49807205ce4d355092ef5a8a18f56e8913cf4a201fbe287825b095693c2177533612248565b6129515760405162461bcd60e51b81526004016108f49061411c565b610d307f3204c940063673962b481a0395619b3dbbd137589c419e993978c1c71bcf68ec82611338565b836129868133610c61565b6129a25760405162461bcd60e51b81526004016108f4906140ae565b6129ab85611614565b6129c75760405162461bcd60e51b81526004016108f490614153565b600085815260056020526040902060010154806129f65760405162461bcd60e51b81526004016108f4906140e5565b60008681526005602052604090206003015460ff1615612a285760405162461bcd60e51b81526004016108f490613f9b565b600454831115612a4a5760405162461bcd60e51b81526004016108f490613ef6565b6002546040517f77f325df0000000000000000000000000000000000000000000000000000000081526001600160a01b03909116906377f325df908590612a999085908a908a90600401613e5e565b6000604051808303818588803b158015612ab257600080fd5b505af1158015612ac6573d6000803e3d6000fd5b50505060009788525050600560205250506040909320600301805460ff19166001179055505050565b6000610cb7836001600160a01b038416612fd9565b80516060908290612b43576040805160008082526020820190925290612b3a565b6060815260200190600190039081612b255790505b509150506112d6565b600160005b8251811015612bbb57828181518110612b5d57fe5b6020910101517fff00000000000000000000000000000000000000000000000000000000000000167f2c000000000000000000000000000000000000000000000000000000000000001415612bb3576001909101905b600101612b48565b5060008167ffffffffffffffff81118015612bd557600080fd5b50604051908082528060200260200182016040528015612c0957816020015b6060815260200190600190039081612bf45790505b50905060008060005b8551811015612cab57858181518110612c2757fe5b6020910101517fff00000000000000000000000000000000000000000000000000000000000000167f2c000000000000000000000000000000000000000000000000000000000000001415612ca357612c81868383613023565b848481518110612c8d57fe5b6020908102919091010152600192830192810191505b600101612c12565b50612cb885828751613023565b838381518110612cc457fe5b6020908102919091010152509095945050505050565b6040805160208101909152600081526060908415612d8c5785856000818110612cff57fe5b9050602002810190612d1191906142dc565b604051602001612d22929190613cf1565b60408051601f19818403018152919052905060015b85811015612d8a5781878783818110612d4c57fe5b9050602002810190612d5e91906142dc565b604051602001612d7093929190613c10565b60408051601f198184030181529190529150600101612d37565b505b8787828686604051602001612da5959493929190613c86565b6040516020818303038152906040529150509695505050505050565b6060815160001415612de257506040805160208101909152600081526112d6565b600082600081518110612df157fe5b602002602001015190506000600190505b8351811015612e4b5781848281518110612e1857fe5b6020026020010151604051602001612e31929190613bb8565b60408051601f198184030181529190529150600101612e02565b5092915050565b3390565b6000828152602081905260409020612e6e9082612aef565b1561139b57612e7b612e52565b6001600160a01b0316816001600160a01b0316837f2f8788117e7eff1d82e926ec794901d17c78024a50270940304540a733656f0d60405160405180910390a45050565b6000828152602081905260409020612ed790826130e0565b1561139b57612ee4612e52565b6001600160a01b0316816001600160a01b0316837ff6391f5c32d9c69d2a47ea670b442974b53935d1edc7fd64eb21e047a839171b60405160405180910390a45050565b604080516001600160a01b038416602482015260448082018490528251808303909101815260649091019091526020810180517bffffffffffffffffffffffffffffffffffffffffffffffffffffffff167fa9059cbb00000000000000000000000000000000000000000000000000000000179052612fa89084906130f5565b505050565b6000610cb783836131a6565b6000610cb7836001600160a01b03841661320a565b6000610cba82613222565b6000612fe5838361320a565b61301b57508154600181810184556000848152602080822090930184905584548482528286019093526040902091909155610cba565b506000610cba565b606082820360008167ffffffffffffffff8111801561304157600080fd5b506040519080825280601f01601f19166020018201604052801561306c576020820181803683370190505b50905060005b828110156130d657868187018151811061308857fe5b602001015160f81c60f81b82828151811061309f57fe5b60200101907effffffffffffffffffffffffffffffffffffffffffffffffffffffffffffff1916908160001a905350600101613072565b5095945050505050565b6000610cb7836001600160a01b038416613226565b600061314a826040518060400160405280602081526020017f5361666545524332303a206c6f772d6c6576656c2063616c6c206661696c6564815250856001600160a01b03166132ec9092919063ffffffff16565b805190915015612fa85780806020019051602081101561316957600080fd5b5051612fa85760405162461bcd60e51b815260040180806020018281038252602a8152602001806144e2602a913960400191505060405180910390fd5b815460009082106131e85760405162461bcd60e51b81526004018080602001828103825260228152602001806144616022913960400191505060405180910390fd5b8260000182815481106131f757fe5b9060005260206000200154905092915050565b60009081526001919091016020526040902054151590565b5490565b600081815260018301602052604081205480156132e2578354600019808301919081019060009087908390811061325957fe5b906000526020600020015490508087600001848154811061327657fe5b6000918252602080832090910192909255828152600189810190925260409020908401905586548790806132a657fe5b60019003818190600052602060002001600090559055866001016000878152602001908152602001600020600090556001945050505050610cba565b6000915050610cba565b606061290184846000858561330085613411565b613351576040805162461bcd60e51b815260206004820152601d60248201527f416464726573733a2063616c6c20746f206e6f6e2d636f6e7472616374000000604482015290519081900360640190fd5b600080866001600160a01b031685876040518082805190602001908083835b6020831061338f5780518252601f199092019160209182019101613370565b6001836020036101000a03801982511681845116808217855250505050505090500191505060006040518083038185875af1925050503d80600081146133f1576040519150601f19603f3d011682016040523d82523d6000602084013e6133f6565b606091505b5091509150613406828286613417565b979650505050505050565b3b151590565b60608315613426575081612904565b8251156134365782518084602001fd5b8160405162461bcd60e51b81526004018080602001828103825283818151815260200191508051906020019080838360005b83811015613480578181015183820152602001613468565b50505050905090810190601f1680156134ad5780820380516001836020036101000a031916815260200191505b509250505060405180910390fd5b828054600181600116156101000203166002900490600052602060002090601f0160209004810192826134f15760008555613537565b82601f1061350a57805160ff1916838001178555613537565b82800160010185558215613537579182015b8281111561353757825182559160200191906001019061351c565b50613543929150613587565b5090565b50805460018160011615610100020316600290046000825580601f1061356d5750610d30565b601f016020900490600052602060002090810190610d3091905b5b808211156135435760008155600101613588565b60008083601f8401126135ad578182fd5b50813567ffffffffffffffff8111156135c4578182fd5b60208301915083602080830285010111156135de57600080fd5b9250929050565b60008083601f8401126135f6578182fd5b50813567ffffffffffffffff81111561360d578182fd5b6020830191508360208285010111156135de57600080fd5b80356112d68161444e565b600060208284031215613641578081fd5b813561290481614439565b60006020828403121561365d578081fd5b815161290481614439565b600060208284031215613679578081fd5b81518015158114612904578182fd5b600060208284031215613699578081fd5b5035919050565b6000602082840312156136b1578081fd5b5051919050565b600080604083850312156136ca578081fd5b8235915060208301356136dc81614439565b809150509250929050565b600080600080600080600080600060a08a8c031215613704578485fd5b8935985060208a013567ffffffffffffffff80821115613722578687fd5b61372e8d838e0161359c565b909a50985060408c0135915080821115613746578687fd5b6137528d838e0161359c565b909850965060608c013591508082111561376a578586fd5b6137768d838e0161359c565b909650945060808c013591508082111561378e578384fd5b5061379b8c828d0161359c565b915080935050809150509295985092959850929598565b600080604083850312156137c4578182fd5b50508035926020909101359150565b600080604083850312156136ca578182fd5b600080600080606085870312156137fa578182fd5b84359350602085013561380c81614439565b9250604085013567ffffffffffffffff811115613827578283fd5b6138338782880161359c565b95989497509550505050565b600080600060408486031215613853578081fd5b83359250602084013567ffffffffffffffff811115613870578182fd5b61387c8682870161359c565b9497909650939450505050565b600080600080600060a086880312156138a0578283fd5b8535945060208601359350604086013592506060860135915060808601356138c781614439565b809150509295509295909350565b600080600080608085870312156138ea578182fd5b5050823594602084013594506040840135936060013592509050565b60008060008060008060008060008060006101008c8e031215613927578485fd5b8b359a5060208c0135995061393e60408d01613625565b985067ffffffffffffffff8060608e01351115613959578586fd5b6139698e60608f01358f016135e5565b909950975060808d013581101561397e578586fd5b61398e8e60808f01358f0161359c565b909750955060a08d01358110156139a3578283fd5b506139b48d60a08e01358e016135e5565b90945092506139c560c08d01613625565b91506139d360e08d01613625565b90509295989b509295989b9093969950565b6000806000806000806000806000806000806101208d8f031215613a07578586fd5b8c359b50613a1760208e01613625565b9a5067ffffffffffffffff60408e01351115613a31578586fd5b613a418e60408f01358f016135e5565b909a50985067ffffffffffffffff60608e01351115613a5e578586fd5b613a6e8e60608f01358f0161359c565b909850965067ffffffffffffffff60808e01351115613a8b578586fd5b613a9b8e60808f01358f016135e5565b9096509450613aac60a08e01613625565b9350613aba60c08e01613625565b925060e08d013591506101008d013590509295989b509295989b509295989b565b600060208284031215613aec578081fd5b81516129048161444e565b60008284526020808501945082825b85811015613b34578135613b1981614439565b6001600160a01b031687529582019590820190600101613b06565b509495945050505050565b60008284527f07ffffffffffffffffffffffffffffffffffffffffffffffffffffffffffffff831115613b70578081fd5b6020830280836020870137939093016020019283525090919050565b60008151808452613ba481602086016020860161440d565b601f01601f19169290920160200192915050565b60008351613bca81846020880161440d565b7f2c000000000000000000000000000000000000000000000000000000000000009083019081528351613c0481600184016020880161440d565b01600101949350505050565b60008451613c2281846020890161440d565b7f2c22000000000000000000000000000000000000000000000000000000000000908301908152838560028301377f220000000000000000000000000000000000000000000000000000000000000093016002810193909352505060030192915050565b6000858783378582018181527fe2909f00000000000000000000000000000000000000000000000000000000008082528651613cc9816003850160208b0161440d565b6003920191820181905284866006840137930160068101939093525050600901949350505050565b60007f22000000000000000000000000000000000000000000000000000000000000008083528385600185013792909101600181019290925250600201919050565b6001600160a01b0391909116815260200190565b60006001600160a01b038816825286602083015260c06040830152613d6f60c0830187613b8c565b851515606084015284608084015282810360a0840152613d8f8185613b8c565b9998505050505050505050565b600060208252612901602083018486613af7565b901515815260200190565b91151582521515602082015260400190565b93151584529115156020840152151560408301521515606082015260800190565b90815260200190565b60008a825260a06020830152613e1160a083018a8c613b3f565b8281036040840152613e2481898b613af7565b90508281036060840152613e39818789613b3f565b90508281036080840152613e4e818587613b3f565b9c9b505050505050505050505050565b9283526020830191909152604082015260600190565b938452602084019290925260408301526001600160a01b0316606082015260800190565b958652602086019490945263ffffffff929092166040850152606084015215156080830152151560a082015260c00190565b94855263ffffffff93841660208601529190921660408401526060830191909152608082015260a00190565b60208082526014908201527f416e7377657220626f6e6420746f6f2068696768000000000000000000000000604082015260600190565b60208082526010908201527f496e76616c6964207175657374696f6e00000000000000000000000000000000604082015260600190565b60208082526017908201527f4d61726b657420616c7265616479207265706f72746564000000000000000000604082015260600190565b60208082526017908201527f4d61726b657420616c726561647920616e737765726564000000000000000000604082015260600190565b60208082526015908201527f5175657374696f6e20616c7265616479206f70656e0000000000000000000000604082015260600190565b6020808252600e908201527f496e76616c6964206d61726b6574000000000000000000000000000000000000604082015260600190565b6020808252600e908201527f496e76616c6964206d6173746572000000000000000000000000000000000000604082015260600190565b6020808252600e908201527f496e76616c696420616e73776572000000000000000000000000000000000000604082015260600190565b60208082526014908201527f4f6e6c79204d61726b6574205265706f72746572000000000000000000000000604082015260600190565b60208082526013908201527f4d61726b6574204964206e6f7420666f756e6400000000000000000000000000604082015260600190565b6020808252600a908201527f4f6e6c792041646d696e00000000000000000000000000000000000000000000604082015260600190565b60208082526015908201527f4d61726b6574206e6f7420726567697374657265640000000000000000000000604082015260600190565b60208082526010908201527f496e76616c6964207265706f7274657200000000000000000000000000000000604082015260600190565b6020808252600d908201527f4f6e6c79205265706f7274657200000000000000000000000000000000000000604082015260600190565b60208082526017908201527f416c7265616479207265676973746572206d61726b6574000000000000000000604082015260600190565b918252602082015260400190565b600063ffffffff808916835260c0602084015261425d60c0840189613b8c565b6001600160a01b0397909716604084015294851660608301525091909216608082015260a0015292915050565b600063ffffffff808a16835260e060208401526142aa60e084018a613b8c565b6001600160a01b0398909816604084015295861660608301525092909316608083015260a082015260c0015292915050565b60008083357fffffffffffffffffffffffffffffffffffffffffffffffffffffffffffffffe1843603018112614310578283fd5b83018035915067ffffffffffffffff82111561432a578283fd5b6020019150368190038213156135de57600080fd5b60405181810167ffffffffffffffff8111828210171561435b57fe5b604052919050565b600067ffffffffffffffff8084111561437857fe5b6020614387818287020161433f565b8581528181019085855b888110156144005781358801601f36818301126143ac578889fd5b8135888111156143b857fe5b6143c988601f19848401160161433f565b915080825236888285010111156143de57898afd5b8088840189840137810187018990528552509284019290840190600101614391565b5090979650505050505050565b60005b83811015614428578181015183820152602001614410565b83811115611b4d5750506000910152565b6001600160a01b0381168114610d3057600080fd5b63ffffffff81168114610d3057600080fdfe456e756d657261626c655365743a20696e646578206f7574206f6620626f756e6473416363657373436f6e74726f6c3a2073656e646572206d75737420626520616e2061646d696e20746f206772616e74416363657373436f6e74726f6c3a2073656e646572206d75737420626520616e2061646d696e20746f207265766f6b655361666545524332303a204552433230206f7065726174696f6e20646964206e6f742073756363656564416363657373436f6e74726f6c3a2063616e206f6e6c792072656e6f756e636520726f6c657320666f722073656c66a2646970667358221220417e9bd130ac74c158e6e86ec79723c9bcd875921e2afd35513c0578fb01e29664736f6c63430007060033a49807205ce4d355092ef5a8a18f56e8913cf4a201fbe287825b095693c21775",
  "devdoc": {
    "author": "Marto (https://github.com/0xMarto) & Mati (https://github.com/0xAstraea)",
    "details": "Feel free to make any adjustments to the code (DMs are open @0xMarto)",
    "kind": "dev",
    "methods": {
      "answerOpenQuestion(uint256,bytes32,uint256,uint256)": {
        "details": "This function require that the sender `isMarketReporter`",
        "params": {
          "answer": "The answer being submitted (as bytes32)",
          "bond": "Amount of ETH to bond with this answer",
          "marketId": "The market whose question is being answered",
          "maxPrevious": "Maximum previous bond to calculate minimum new bond"
        }
      },
      "constructor": {
        "params": {
          "initialAdmin": "Address that will be granted the first Admin account"
        }
      },
      "getAccountPermissions(address)": {
        "params": {
          "account": "The address of the account to check."
        },
        "returns": {
          "isAdmin": "Indicates whether the account has the admin role.",
          "isGlobalReporter": "Indicates whether the account has the reporter role."
        }
      },
      "getMarketState(uint256)": {
        "params": {
          "marketId": "The market Id to get the current state parameters"
        },
        "returns": {
          "isAnswered": "Indicates whether the market has been answered by a reporter.",
          "isFinalized": "Indicates whether the market answer is final and the result can be reported.",
          "isRegistered": "Indicates whether the market is registered in the system.",
          "isReported": "Indicates whether the market's result has been reported."
        }
      },
      "getRealityQuestionInfo(uint256)": {
        "params": {
          "marketId": "The market Id to get information for"
        }
      },
      "getRealityResultInfo(uint256)": {
        "params": {
          "marketId": "The Market Id  to get Reality result info"
        },
        "returns": {
          "answer": "the current last or final answer value (as bytes32 index)",
          "finalizeTS": "The pending time to reach the answer timeout",
          "isFinalized": "Whether the question is finalized",
          "isPendingArbitration": "Whether the question is pending arbitration",
          "lastHash": "The history hash of the last answer",
          "questionId": "question identifier"
        }
      },
      "getRoleAdmin(bytes32)": {
        "details": "Returns the admin role that controls `role`. See {grantRole} and {revokeRole}. To change a role's admin, use {_setRoleAdmin}."
      },
      "getRoleMember(bytes32,uint256)": {
        "details": "Returns one of the accounts that have `role`. `index` must be a value between 0 and {getRoleMemberCount}, non-inclusive. Role bearers are not sorted in any particular way, and their ordering may change at any point. WARNING: When using {getRoleMember} and {getRoleMemberCount}, make sure you perform all queries on the same block. See the following https://forum.openzeppelin.com/t/iterating-over-elements-on-enumerableset-in-openzeppelin-contracts/2296[forum post] for more information."
      },
      "getRoleMemberCount(bytes32)": {
        "details": "Returns the number of accounts that have `role`. Can be used together with {getRoleMember} to enumerate all bearers of a role."
      },
      "grantRole(bytes32,address)": {
        "details": "Grants `role` to `account`. If `account` had not been already granted `role`, emits a {RoleGranted} event. Requirements: - the caller must have ``role``'s admin role."
      },
      "hasRole(bytes32,address)": {
        "details": "Returns `true` if `account` has been granted `role`."
      },
      "openQuestion(uint256,uint256,uint32,string,string[],string,uint32,uint32)": {
        "details": "This function require that the sender `isMarketReporter`",
        "params": {
          "bounty": "Amount of ETH to offer as question bounty",
          "category": "Question category for organization",
          "marketId": "The market this question belongs to",
          "outcomes": "Array of possible answer options",
          "question": "The actual question text",
          "startTime": "Timestamp when question becomes answerable",
          "templateId": "Reality.eth template ID defining question structure",
          "timeout": "Duration in seconds before question can be answered"
        },
        "returns": {
          "questionId": "Unique identifier of the created question in Reality.eth"
        }
      },
      "realityClaimWinnings(bytes32,bytes32[],address[],uint256[],bytes32[])": {
        "params": {
          "answerers": "The addresses involved in the claim",
          "answers": "The answers for the claim",
          "bonds": "The bonds for the claim",
          "historyHashes": "The history hashes for the claim",
          "questionId": "The question Id to claim winnings for"
        }
      },
      "realityOpenQuestion(uint256,uint32,string,string[],string,uint32,uint32,uint256,uint256)": {
        "returns": {
          "questionId": "The unique identifier for the question"
        }
      },
      "realitySubmitAnswerFor(uint256,bytes32,bytes32,uint256,address)": {
        "params": {
          "answer": "The answer to submit",
          "answerer": "The address submitting the answer for",
          "maxPrevious": "Maximum number of previous answers to consider",
          "questionId": "The question Id to answer"
        }
      },
      "registerMarket(uint256,address,address[])": {
        "details": "Validates market ownership and oracle assignment before registration      Requirements:      - Caller must have REPORTER_ROLE      - Market must be owned by precogMaster      - Market must have this contract set as its oracle      - Market ID must not be already registered",
        "params": {
          "id": "Unique identifier for the market",
          "initialReporters": "Optional array of addresses that can report for this specific market",
          "market": "Address of the PrecogMarket contract"
        }
      },
      "renounceRole(bytes32,address)": {
        "details": "Revokes `role` from the calling account. Roles are often managed via {grantRole} and {revokeRole}: this function's purpose is to provide a mechanism for accounts to lose their privileges if they are compromised (such as when a trusted device is misplaced). If the calling account had been granted `role`, emits a {RoleRevoked} event. Requirements: - the caller must be `account`."
      },
      "reportResult(uint256)": {
        "details": "Also store validated result in local storage to be audited"
      },
      "revokeRole(bytes32,address)": {
        "details": "Revokes `role` from `account`. If `account` had been granted `role`, emits a {RoleRevoked} event. Requirements: - the caller must have ``role``'s admin role."
      },
      "submitResult(uint256,uint32,string,string[],string,uint32,uint32,bytes32,uint256)": {
        "details": "This function require that the sender `isMarketReporter`",
        "returns": {
          "questionId": "The unique identifier for the question"
        }
      }
    },
    "title": "PrecogOracleRealityV3: An smart oracle implementation to report results on Precog Markets using Reality.eth",
    "version": 1
  },
  "userdoc": {
    "kind": "user",
    "methods": {
      "answerOpenQuestion(uint256,bytes32,uint256,uint256)": {
        "notice": "Submits an answer to an open Reality.eth question for a market"
      },
      "constructor": {
        "notice": "Initializes the PrecogRealityOracleV1 contract"
      },
      "getAccountPermissions(address)": {
        "notice": "Returns the permissions status of a given account."
      },
      "getMarketState(uint256)": {
        "notice": "Returns the current state of a given market."
      },
      "getRealityBalance()": {
        "notice": "Get the Reality.eth balance of this contract"
      },
      "getRealityQuestionInfo(uint256)": {
        "notice": "Get comprehensive information about a Reality Question starting settings"
      },
      "getRealityResultInfo(uint256)": {
        "notice": "Get information about a Question resolution status"
      },
      "isMarketRegistered(uint256)": {
        "notice": "Check if a market is already registered on this oracle"
      },
      "isMarketReporter(uint256,address)": {
        "notice": "Check if an account is allowed to summit/report result for a specific Market"
      },
      "openQuestion(uint256,uint256,uint32,string,string[],string,uint32,uint32)": {
        "notice": "Opens a new question in Reality.eth for a specific market"
      },
      "realityClaimWinnings(bytes32,bytes32[],address[],uint256[],bytes32[])": {
        "notice": "Assign winnings in Reality.eth of a question, to later claim them by the answerer"
      },
      "realityOpenQuestion(uint256,uint32,string,string[],string,uint32,uint32,uint256,uint256)": {
        "notice": "Open a question in Reality.eth without a local register market"
      },
      "realitySubmitAnswerFor(uint256,bytes32,bytes32,uint256,address)": {
        "notice": "Submit an answer in name of another address in Reality.eth"
      },
      "realityWithdraw()": {
        "notice": "Executes a withdraw on Reality.eth contract"
      },
      "registerMarket(uint256,address,address[])": {
        "notice": "Registers a new market with this oracle"
      },
      "reportResult(uint256)": {
        "notice": "Report result validated by Reality.eth to corresponding Market"
      },
      "submitResult(uint256,uint32,string,string[],string,uint32,uint32,bytes32,uint256)": {
        "notice": "Submit a Market result by opening question and answering it (to be disputed or validate it)"
      }
    },
    "version": 1
  },
  "storageLayout": {
    "storage": [
      {
        "astId": 22,
        "contract": "contracts/PrecogRealityOracleV3.sol:PrecogRealityOracleV3",
        "label": "_roles",
        "offset": 0,
        "slot": "0",
        "type": "t_mapping(t_bytes32,t_struct(RoleData)18_storage)"
      },
      {
        "astId": 18681,
        "contract": "contracts/PrecogRealityOracleV3.sol:PrecogRealityOracleV3",
        "label": "precogMaster",
        "offset": 0,
        "slot": "1",
        "type": "t_address"
      },
      {
        "astId": 18683,
        "contract": "contracts/PrecogRealityOracleV3.sol:PrecogRealityOracleV3",
        "label": "reality",
        "offset": 0,
        "slot": "2",
        "type": "t_address"
      },
      {
        "astId": 18685,
        "contract": "contracts/PrecogRealityOracleV3.sol:PrecogRealityOracleV3",
        "label": "arbitrator",
        "offset": 0,
        "slot": "3",
        "type": "t_address"
      },
      {
        "astId": 18687,
        "contract": "contracts/PrecogRealityOracleV3.sol:PrecogRealityOracleV3",
        "label": "maxAnswerBond",
        "offset": 0,
        "slot": "4",
        "type": "t_uint256"
      },
      {
        "astId": 18691,
        "contract": "contracts/PrecogRealityOracleV3.sol:PrecogRealityOracleV3",
        "label": "markets",
        "offset": 0,
        "slot": "5",
        "type": "t_mapping(t_uint256,t_struct(MarketInfo)18679_storage)"
      },
      {
        "astId": 18697,
        "contract": "contracts/PrecogRealityOracleV3.sol:PrecogRealityOracleV3",
        "label": "marketReporters",
        "offset": 0,
        "slot": "6",
        "type": "t_mapping(t_uint256,t_mapping(t_address,t_bool))"
      }
    ],
    "types": {
      "t_address": {
        "encoding": "inplace",
        "label": "address",
        "numberOfBytes": "20"
      },
      "t_array(t_bytes32)dyn_storage": {
        "base": "t_bytes32",
        "encoding": "dynamic_array",
        "label": "bytes32[]",
        "numberOfBytes": "32"
      },
      "t_bool": {
        "encoding": "inplace",
        "label": "bool",
        "numberOfBytes": "1"
      },
      "t_bytes32": {
        "encoding": "inplace",
        "label": "bytes32",
        "numberOfBytes": "32"
      },
      "t_mapping(t_address,t_bool)": {
        "encoding": "mapping",
        "key": "t_address",
        "label": "mapping(address => bool)",
        "numberOfBytes": "32",
        "value": "t_bool"
      },
      "t_mapping(t_bytes32,t_struct(RoleData)18_storage)": {
        "encoding": "mapping",
        "key": "t_bytes32",
        "label": "mapping(bytes32 => struct AccessControl.RoleData)",
        "numberOfBytes": "32",
        "value": "t_struct(RoleData)18_storage"
      },
      "t_mapping(t_bytes32,t_uint256)": {
        "encoding": "mapping",
        "key": "t_bytes32",
        "label": "mapping(bytes32 => uint256)",
        "numberOfBytes": "32",
        "value": "t_uint256"
      },
      "t_mapping(t_uint256,t_mapping(t_address,t_bool))": {
        "encoding": "mapping",
        "key": "t_uint256",
        "label": "mapping(uint256 => mapping(address => bool))",
        "numberOfBytes": "32",
        "value": "t_mapping(t_address,t_bool)"
      },
      "t_mapping(t_uint256,t_struct(MarketInfo)18679_storage)": {
        "encoding": "mapping",
        "key": "t_uint256",
        "label": "mapping(uint256 => struct PrecogRealityOracleV3.MarketInfo)",
        "numberOfBytes": "32",
        "value": "t_struct(MarketInfo)18679_storage"
      },
      "t_string_storage": {
        "encoding": "bytes",
        "label": "string",
        "numberOfBytes": "32"
      },
      "t_struct(AddressSet)2772_storage": {
        "encoding": "inplace",
        "label": "struct EnumerableSet.AddressSet",
        "members": [
          {
            "astId": 2771,
            "contract": "contracts/PrecogRealityOracleV3.sol:PrecogRealityOracleV3",
            "label": "_inner",
            "offset": 0,
            "slot": "0",
            "type": "t_struct(Set)2507_storage"
          }
        ],
        "numberOfBytes": "64"
      },
      "t_struct(MarketInfo)18679_storage": {
        "encoding": "inplace",
        "label": "struct PrecogRealityOracleV3.MarketInfo",
        "members": [
          {
            "astId": 18668,
            "contract": "contracts/PrecogRealityOracleV3.sol:PrecogRealityOracleV3",
            "label": "market",
            "offset": 0,
            "slot": "0",
            "type": "t_address"
          },
          {
            "astId": 18670,
            "contract": "contracts/PrecogRealityOracleV3.sol:PrecogRealityOracleV3",
            "label": "questionId",
            "offset": 0,
            "slot": "1",
            "type": "t_bytes32"
          },
          {
            "astId": 18672,
            "contract": "contracts/PrecogRealityOracleV3.sol:PrecogRealityOracleV3",
            "label": "outcomes",
            "offset": 0,
            "slot": "2",
            "type": "t_string_storage"
          },
          {
            "astId": 18674,
            "contract": "contracts/PrecogRealityOracleV3.sol:PrecogRealityOracleV3",
            "label": "answered",
            "offset": 0,
            "slot": "3",
            "type": "t_bool"
          },
          {
            "astId": 18676,
            "contract": "contracts/PrecogRealityOracleV3.sol:PrecogRealityOracleV3",
            "label": "resultIndex",
            "offset": 0,
            "slot": "4",
            "type": "t_uint256"
          },
          {
            "astId": 18678,
            "contract": "contracts/PrecogRealityOracleV3.sol:PrecogRealityOracleV3",
            "label": "resultLabel",
            "offset": 0,
            "slot": "5",
            "type": "t_string_storage"
          }
        ],
        "numberOfBytes": "192"
      },
      "t_struct(RoleData)18_storage": {
        "encoding": "inplace",
        "label": "struct AccessControl.RoleData",
        "members": [
          {
            "astId": 15,
            "contract": "contracts/PrecogRealityOracleV3.sol:PrecogRealityOracleV3",
            "label": "members",
            "offset": 0,
            "slot": "0",
            "type": "t_struct(AddressSet)2772_storage"
          },
          {
            "astId": 17,
            "contract": "contracts/PrecogRealityOracleV3.sol:PrecogRealityOracleV3",
            "label": "adminRole",
            "offset": 0,
            "slot": "2",
            "type": "t_bytes32"
          }
        ],
        "numberOfBytes": "96"
      },
      "t_struct(Set)2507_storage": {
        "encoding": "inplace",
        "label": "struct EnumerableSet.Set",
        "members": [
          {
            "astId": 2502,
            "contract": "contracts/PrecogRealityOracleV3.sol:PrecogRealityOracleV3",
            "label": "_values",
            "offset": 0,
            "slot": "0",
            "type": "t_array(t_bytes32)dyn_storage"
          },
          {
            "astId": 2506,
            "contract": "contracts/PrecogRealityOracleV3.sol:PrecogRealityOracleV3",
            "label": "_indexes",
            "offset": 0,
            "slot": "1",
            "type": "t_mapping(t_bytes32,t_uint256)"
          }
        ],
        "numberOfBytes": "64"
      },
      "t_uint256": {
        "encoding": "inplace",
        "label": "uint256",
        "numberOfBytes": "32"
      }
    }
  }
}